{
	"contracts/Expenses.sol": {
		"Expenses": {
			"abi": [
				{
					"inputs": [],
					"stateMutability": "nonpayable",
					"type": "constructor"
				},
				{
					"anonymous": false,
					"inputs": [
						{
							"indexed": false,
							"internalType": "address",
							"name": "creditor",
							"type": "address"
						},
						{
							"indexed": false,
							"internalType": "address",
							"name": "asset",
							"type": "address"
						},
						{
							"indexed": false,
							"internalType": "uint256",
							"name": "amount",
							"type": "uint256"
						}
					],
					"name": "NewCredit",
					"type": "event"
				},
				{
					"anonymous": false,
					"inputs": [
						{
							"indexed": false,
							"internalType": "address",
							"name": "debtor",
							"type": "address"
						},
						{
							"indexed": false,
							"internalType": "address",
							"name": "asset",
							"type": "address"
						},
						{
							"indexed": false,
							"internalType": "uint256",
							"name": "amount",
							"type": "uint256"
						}
					],
					"name": "NewDebit",
					"type": "event"
				},
				{
					"inputs": [
						{
							"internalType": "address",
							"name": "_creditor",
							"type": "address"
						},
						{
							"internalType": "uint256",
							"name": "_amount",
							"type": "uint256"
						},
						{
							"internalType": "address",
							"name": "_asset",
							"type": "address"
						},
						{
							"internalType": "address[]",
							"name": "_debtors",
							"type": "address[]"
						},
						{
							"internalType": "string",
							"name": "_description",
							"type": "string"
						}
					],
					"name": "addCreditSimple",
					"outputs": [],
					"stateMutability": "nonpayable",
					"type": "function"
				},
				{
					"inputs": [
						{
							"internalType": "address",
							"name": "_participant",
							"type": "address"
						}
					],
					"name": "addParticipant",
					"outputs": [],
					"stateMutability": "nonpayable",
					"type": "function"
				},
				{
					"inputs": [
						{
							"internalType": "address",
							"name": "",
							"type": "address"
						}
					],
					"name": "isParticipant",
					"outputs": [
						{
							"internalType": "bool",
							"name": "",
							"type": "bool"
						}
					],
					"stateMutability": "view",
					"type": "function"
				},
				{
					"inputs": [
						{
							"internalType": "address",
							"name": "_participant",
							"type": "address"
						}
					],
					"name": "listCredits",
					"outputs": [
						{
							"components": [
								{
									"internalType": "uint256",
									"name": "amount",
									"type": "uint256"
								},
								{
									"internalType": "address",
									"name": "asset",
									"type": "address"
								},
								{
									"internalType": "string",
									"name": "description",
									"type": "string"
								}
							],
							"internalType": "struct Expenses.LedgerEntry[]",
							"name": "",
							"type": "tuple[]"
						}
					],
					"stateMutability": "view",
					"type": "function"
				},
				{
					"inputs": [
						{
							"internalType": "address",
							"name": "_participant",
							"type": "address"
						}
					],
					"name": "listDebits",
					"outputs": [
						{
							"components": [
								{
									"internalType": "uint256",
									"name": "amount",
									"type": "uint256"
								},
								{
									"internalType": "address",
									"name": "asset",
									"type": "address"
								},
								{
									"internalType": "string",
									"name": "description",
									"type": "string"
								}
							],
							"internalType": "struct Expenses.LedgerEntry[]",
							"name": "",
							"type": "tuple[]"
						}
					],
					"stateMutability": "view",
					"type": "function"
				}
			],
			"devdoc": {
				"kind": "dev",
				"methods": {},
				"version": 1
			},
			"evm": {
				"assembly": "    /* \"contracts/Expenses.sol\":70:2177  contract Expenses {... */\n  mstore(0x40, 0x80)\n    /* \"contracts/Expenses.sol\":629:691  constructor(){... */\n  callvalue\n  dup1\n  iszero\n  tag_1\n  jumpi\n  0x00\n  dup1\n  revert\ntag_1:\n  pop\n    /* \"contracts/Expenses.sol\":680:684  true */\n  0x01\n    /* \"contracts/Expenses.sol\":652:665  isParticipant */\n  dup1\n    /* \"contracts/Expenses.sol\":652:677  isParticipant[msg.sender] */\n  0x00\n    /* \"contracts/Expenses.sol\":666:676  msg.sender */\n  caller\n    /* \"contracts/Expenses.sol\":652:677  isParticipant[msg.sender] */\n  0xffffffffffffffffffffffffffffffffffffffff\n  and\n  0xffffffffffffffffffffffffffffffffffffffff\n  and\n  dup2\n  mstore\n  0x20\n  add\n  swap1\n  dup2\n  mstore\n  0x20\n  add\n  0x00\n  keccak256\n  0x00\n    /* \"contracts/Expenses.sol\":652:684  isParticipant[msg.sender] = true */\n  0x0100\n  exp\n  dup2\n  sload\n  dup2\n  0xff\n  mul\n  not\n  and\n  swap1\n  dup4\n  iszero\n  iszero\n  mul\n  or\n  swap1\n  sstore\n  pop\n    /* \"contracts/Expenses.sol\":70:2177  contract Expenses {... */\n  dataSize(sub_0)\n  dup1\n  dataOffset(sub_0)\n  0x00\n  codecopy\n  0x00\n  return\nstop\n\nsub_0: assembly {\n        /* \"contracts/Expenses.sol\":70:2177  contract Expenses {... */\n      mstore(0x40, 0x80)\n      callvalue\n      dup1\n      iszero\n      tag_1\n      jumpi\n      0x00\n      dup1\n      revert\n    tag_1:\n      pop\n      jumpi(tag_2, lt(calldatasize, 0x04))\n      shr(0xe0, calldataload(0x00))\n      dup1\n      0x69a1649c\n      eq\n      tag_3\n      jumpi\n      dup1\n      0x88658293\n      eq\n      tag_4\n      jumpi\n      dup1\n      0x929066f5\n      eq\n      tag_5\n      jumpi\n      dup1\n      0xd374cd04\n      eq\n      tag_6\n      jumpi\n      dup1\n      0xdfafe10f\n      eq\n      tag_7\n      jumpi\n    tag_2:\n      0x00\n      dup1\n      revert\n        /* \"contracts/Expenses.sol\":2026:2175  function listDebits(address _participant) external view returns (LedgerEntry[] memory) {... */\n    tag_3:\n      tag_8\n      0x04\n      dup1\n      calldatasize\n      sub\n      dup2\n      add\n      swap1\n      tag_9\n      swap2\n      swap1\n      tag_10\n      jump\t// in\n    tag_9:\n      tag_11\n      jump\t// in\n    tag_8:\n      mload(0x40)\n      tag_12\n      swap2\n      swap1\n      tag_13\n      jump\t// in\n    tag_12:\n      mload(0x40)\n      dup1\n      swap2\n      sub\n      swap1\n      return\n        /* \"contracts/Expenses.sol\":1869:2020  function listCredits(address _participant) external view returns (LedgerEntry[] memory) {... */\n    tag_4:\n      tag_14\n      0x04\n      dup1\n      calldatasize\n      sub\n      dup2\n      add\n      swap1\n      tag_15\n      swap2\n      swap1\n      tag_10\n      jump\t// in\n    tag_15:\n      tag_16\n      jump\t// in\n    tag_14:\n      mload(0x40)\n      tag_17\n      swap2\n      swap1\n      tag_13\n      jump\t// in\n    tag_17:\n      mload(0x40)\n      dup1\n      swap2\n      sub\n      swap1\n      return\n        /* \"contracts/Expenses.sol\":476:521  mapping(address => bool) public isParticipant */\n    tag_5:\n      tag_18\n      0x04\n      dup1\n      calldatasize\n      sub\n      dup2\n      add\n      swap1\n      tag_19\n      swap2\n      swap1\n      tag_10\n      jump\t// in\n    tag_19:\n      tag_20\n      jump\t// in\n    tag_18:\n      mload(0x40)\n      tag_21\n      swap2\n      swap1\n      tag_22\n      jump\t// in\n    tag_21:\n      mload(0x40)\n      dup1\n      swap2\n      sub\n      swap1\n      return\n        /* \"contracts/Expenses.sol\":1186:1863  function addCreditSimple(address _creditor, uint _amount, address _asset, address[] memory _debtors, string memory _description) external onlyParticipant {... */\n    tag_6:\n      tag_23\n      0x04\n      dup1\n      calldatasize\n      sub\n      dup2\n      add\n      swap1\n      tag_24\n      swap2\n      swap1\n      tag_25\n      jump\t// in\n    tag_24:\n      tag_26\n      jump\t// in\n    tag_23:\n      stop\n        /* \"contracts/Expenses.sol\":697:910  function addParticipant(address _participant) external onlyParticipant {... */\n    tag_7:\n      tag_27\n      0x04\n      dup1\n      calldatasize\n      sub\n      dup2\n      add\n      swap1\n      tag_28\n      swap2\n      swap1\n      tag_10\n      jump\t// in\n    tag_28:\n      tag_29\n      jump\t// in\n    tag_27:\n      stop\n        /* \"contracts/Expenses.sol\":2026:2175  function listDebits(address _participant) external view returns (LedgerEntry[] memory) {... */\n    tag_11:\n        /* \"contracts/Expenses.sol\":2091:2111  LedgerEntry[] memory */\n      0x60\n        /* \"contracts/Expenses.sol\":2130:2147  participantLedger */\n      0x00\n        /* \"contracts/Expenses.sol\":2130:2161  participantLedger[_participant] */\n      dup1\n        /* \"contracts/Expenses.sol\":2148:2160  _participant */\n      dup4\n        /* \"contracts/Expenses.sol\":2130:2161  participantLedger[_participant] */\n      0xffffffffffffffffffffffffffffffffffffffff\n      and\n      0xffffffffffffffffffffffffffffffffffffffff\n      and\n      dup2\n      mstore\n      0x20\n      add\n      swap1\n      dup2\n      mstore\n      0x20\n      add\n      0x00\n      keccak256\n        /* \"contracts/Expenses.sol\":2130:2168  participantLedger[_participant].debits */\n      0x00\n      add\n        /* \"contracts/Expenses.sol\":2123:2168  return participantLedger[_participant].debits */\n      dup1\n      sload\n      dup1\n      0x20\n      mul\n      0x20\n      add\n      mload(0x40)\n      swap1\n      dup2\n      add\n      0x40\n      mstore\n      dup1\n      swap3\n      swap2\n      swap1\n      dup2\n      dup2\n      mstore\n      0x20\n      add\n      0x00\n      swap1\n    tag_31:\n      dup3\n      dup3\n      lt\n      iszero\n      tag_32\n      jumpi\n      dup4\n      dup3\n      swap1\n      0x00\n      mstore\n      keccak256(0x00, 0x20)\n      swap1\n      0x03\n      mul\n      add\n      mload(0x40)\n      dup1\n      0x60\n      add\n      0x40\n      mstore\n      swap1\n      dup2\n      0x00\n      dup3\n      add\n      sload\n      dup2\n      mstore\n      0x20\n      add\n      0x01\n      dup3\n      add\n      0x00\n      swap1\n      sload\n      swap1\n      0x0100\n      exp\n      swap1\n      div\n      0xffffffffffffffffffffffffffffffffffffffff\n      and\n      0xffffffffffffffffffffffffffffffffffffffff\n      and\n      0xffffffffffffffffffffffffffffffffffffffff\n      and\n      dup2\n      mstore\n      0x20\n      add\n      0x02\n      dup3\n      add\n      dup1\n      sload\n      tag_34\n      swap1\n      tag_35\n      jump\t// in\n    tag_34:\n      dup1\n      0x1f\n      add\n      0x20\n      dup1\n      swap2\n      div\n      mul\n      0x20\n      add\n      mload(0x40)\n      swap1\n      dup2\n      add\n      0x40\n      mstore\n      dup1\n      swap3\n      swap2\n      swap1\n      dup2\n      dup2\n      mstore\n      0x20\n      add\n      dup3\n      dup1\n      sload\n      tag_36\n      swap1\n      tag_35\n      jump\t// in\n    tag_36:\n      dup1\n      iszero\n      tag_37\n      jumpi\n      dup1\n      0x1f\n      lt\n      tag_38\n      jumpi\n      0x0100\n      dup1\n      dup4\n      sload\n      div\n      mul\n      dup4\n      mstore\n      swap2\n      0x20\n      add\n      swap2\n      jump(tag_37)\n    tag_38:\n      dup3\n      add\n      swap2\n      swap1\n      0x00\n      mstore\n      keccak256(0x00, 0x20)\n      swap1\n    tag_39:\n      dup2\n      sload\n      dup2\n      mstore\n      swap1\n      0x01\n      add\n      swap1\n      0x20\n      add\n      dup1\n      dup4\n      gt\n      tag_39\n      jumpi\n      dup3\n      swap1\n      sub\n      0x1f\n      and\n      dup3\n      add\n      swap2\n    tag_37:\n      pop\n      pop\n      pop\n      pop\n      pop\n      dup2\n      mstore\n      pop\n      pop\n      dup2\n      mstore\n      0x20\n      add\n      swap1\n      0x01\n      add\n      swap1\n      jump(tag_31)\n    tag_32:\n      pop\n      pop\n      pop\n      pop\n      swap1\n      pop\n        /* \"contracts/Expenses.sol\":2026:2175  function listDebits(address _participant) external view returns (LedgerEntry[] memory) {... */\n      swap2\n      swap1\n      pop\n      jump\t// out\n        /* \"contracts/Expenses.sol\":1869:2020  function listCredits(address _participant) external view returns (LedgerEntry[] memory) {... */\n    tag_16:\n        /* \"contracts/Expenses.sol\":1935:1955  LedgerEntry[] memory */\n      0x60\n        /* \"contracts/Expenses.sol\":1974:1991  participantLedger */\n      0x00\n        /* \"contracts/Expenses.sol\":1974:2005  participantLedger[_participant] */\n      dup1\n        /* \"contracts/Expenses.sol\":1992:2004  _participant */\n      dup4\n        /* \"contracts/Expenses.sol\":1974:2005  participantLedger[_participant] */\n      0xffffffffffffffffffffffffffffffffffffffff\n      and\n      0xffffffffffffffffffffffffffffffffffffffff\n      and\n      dup2\n      mstore\n      0x20\n      add\n      swap1\n      dup2\n      mstore\n      0x20\n      add\n      0x00\n      keccak256\n        /* \"contracts/Expenses.sol\":1974:2013  participantLedger[_participant].credits */\n      0x01\n      add\n        /* \"contracts/Expenses.sol\":1967:2013  return participantLedger[_participant].credits */\n      dup1\n      sload\n      dup1\n      0x20\n      mul\n      0x20\n      add\n      mload(0x40)\n      swap1\n      dup2\n      add\n      0x40\n      mstore\n      dup1\n      swap3\n      swap2\n      swap1\n      dup2\n      dup2\n      mstore\n      0x20\n      add\n      0x00\n      swap1\n    tag_41:\n      dup3\n      dup3\n      lt\n      iszero\n      tag_42\n      jumpi\n      dup4\n      dup3\n      swap1\n      0x00\n      mstore\n      keccak256(0x00, 0x20)\n      swap1\n      0x03\n      mul\n      add\n      mload(0x40)\n      dup1\n      0x60\n      add\n      0x40\n      mstore\n      swap1\n      dup2\n      0x00\n      dup3\n      add\n      sload\n      dup2\n      mstore\n      0x20\n      add\n      0x01\n      dup3\n      add\n      0x00\n      swap1\n      sload\n      swap1\n      0x0100\n      exp\n      swap1\n      div\n      0xffffffffffffffffffffffffffffffffffffffff\n      and\n      0xffffffffffffffffffffffffffffffffffffffff\n      and\n      0xffffffffffffffffffffffffffffffffffffffff\n      and\n      dup2\n      mstore\n      0x20\n      add\n      0x02\n      dup3\n      add\n      dup1\n      sload\n      tag_44\n      swap1\n      tag_35\n      jump\t// in\n    tag_44:\n      dup1\n      0x1f\n      add\n      0x20\n      dup1\n      swap2\n      div\n      mul\n      0x20\n      add\n      mload(0x40)\n      swap1\n      dup2\n      add\n      0x40\n      mstore\n      dup1\n      swap3\n      swap2\n      swap1\n      dup2\n      dup2\n      mstore\n      0x20\n      add\n      dup3\n      dup1\n      sload\n      tag_45\n      swap1\n      tag_35\n      jump\t// in\n    tag_45:\n      dup1\n      iszero\n      tag_46\n      jumpi\n      dup1\n      0x1f\n      lt\n      tag_47\n      jumpi\n      0x0100\n      dup1\n      dup4\n      sload\n      div\n      mul\n      dup4\n      mstore\n      swap2\n      0x20\n      add\n      swap2\n      jump(tag_46)\n    tag_47:\n      dup3\n      add\n      swap2\n      swap1\n      0x00\n      mstore\n      keccak256(0x00, 0x20)\n      swap1\n    tag_48:\n      dup2\n      sload\n      dup2\n      mstore\n      swap1\n      0x01\n      add\n      swap1\n      0x20\n      add\n      dup1\n      dup4\n      gt\n      tag_48\n      jumpi\n      dup3\n      swap1\n      sub\n      0x1f\n      and\n      dup3\n      add\n      swap2\n    tag_46:\n      pop\n      pop\n      pop\n      pop\n      pop\n      dup2\n      mstore\n      pop\n      pop\n      dup2\n      mstore\n      0x20\n      add\n      swap1\n      0x01\n      add\n      swap1\n      jump(tag_41)\n    tag_42:\n      pop\n      pop\n      pop\n      pop\n      swap1\n      pop\n        /* \"contracts/Expenses.sol\":1869:2020  function listCredits(address _participant) external view returns (LedgerEntry[] memory) {... */\n      swap2\n      swap1\n      pop\n      jump\t// out\n        /* \"contracts/Expenses.sol\":476:521  mapping(address => bool) public isParticipant */\n    tag_20:\n      mstore(0x20, 0x01)\n      dup1\n      0x00\n      mstore\n      keccak256(0x00, 0x40)\n      0x00\n      swap2\n      pop\n      sload\n      swap1\n      0x0100\n      exp\n      swap1\n      div\n      0xff\n      and\n      dup2\n      jump\t// out\n        /* \"contracts/Expenses.sol\":1186:1863  function addCreditSimple(address _creditor, uint _amount, address _asset, address[] memory _debtors, string memory _description) external onlyParticipant {... */\n    tag_26:\n        /* \"contracts/Expenses.sol\":600:604  true */\n      0x01\n        /* \"contracts/Expenses.sol\":571:604  isParticipant[msg.sender] == true */\n      iszero\n      iszero\n        /* \"contracts/Expenses.sol\":571:584  isParticipant */\n      0x01\n        /* \"contracts/Expenses.sol\":571:596  isParticipant[msg.sender] */\n      0x00\n        /* \"contracts/Expenses.sol\":585:595  msg.sender */\n      caller\n        /* \"contracts/Expenses.sol\":571:596  isParticipant[msg.sender] */\n      0xffffffffffffffffffffffffffffffffffffffff\n      and\n      0xffffffffffffffffffffffffffffffffffffffff\n      and\n      dup2\n      mstore\n      0x20\n      add\n      swap1\n      dup2\n      mstore\n      0x20\n      add\n      0x00\n      keccak256\n      0x00\n      swap1\n      sload\n      swap1\n      0x0100\n      exp\n      swap1\n      div\n      0xff\n      and\n        /* \"contracts/Expenses.sol\":571:604  isParticipant[msg.sender] == true */\n      iszero\n      iszero\n      eq\n        /* \"contracts/Expenses.sol\":563:605  require(isParticipant[msg.sender] == true) */\n      tag_50\n      jumpi\n      0x00\n      dup1\n      revert\n    tag_50:\n        /* \"contracts/Expenses.sol\":1350:1372  checkDebtors(_debtors) */\n      tag_52\n        /* \"contracts/Expenses.sol\":1363:1371  _debtors */\n      dup3\n        /* \"contracts/Expenses.sol\":1350:1362  checkDebtors */\n      tag_53\n        /* \"contracts/Expenses.sol\":1350:1372  checkDebtors(_debtors) */\n      jump\t// in\n    tag_52:\n        /* \"contracts/Expenses.sol\":1382:1406  LedgerEntry memory debit */\n      0x00\n        /* \"contracts/Expenses.sol\":1409:1451  LedgerEntry(_amount, _asset, _description) */\n      mload(0x40)\n      dup1\n      0x60\n      add\n      0x40\n      mstore\n      dup1\n        /* \"contracts/Expenses.sol\":1421:1428  _amount */\n      dup7\n        /* \"contracts/Expenses.sol\":1409:1451  LedgerEntry(_amount, _asset, _description) */\n      dup2\n      mstore\n      0x20\n      add\n        /* \"contracts/Expenses.sol\":1430:1436  _asset */\n      dup6\n        /* \"contracts/Expenses.sol\":1409:1451  LedgerEntry(_amount, _asset, _description) */\n      0xffffffffffffffffffffffffffffffffffffffff\n      and\n      dup2\n      mstore\n      0x20\n      add\n        /* \"contracts/Expenses.sol\":1438:1450  _description */\n      dup4\n        /* \"contracts/Expenses.sol\":1409:1451  LedgerEntry(_amount, _asset, _description) */\n      dup2\n      mstore\n      pop\n        /* \"contracts/Expenses.sol\":1382:1451  LedgerEntry memory debit = LedgerEntry(_amount, _asset, _description) */\n      swap1\n      pop\n        /* \"contracts/Expenses.sol\":1461:1478  participantLedger */\n      0x00\n        /* \"contracts/Expenses.sol\":1461:1489  participantLedger[_creditor] */\n      dup1\n        /* \"contracts/Expenses.sol\":1479:1488  _creditor */\n      dup8\n        /* \"contracts/Expenses.sol\":1461:1489  participantLedger[_creditor] */\n      0xffffffffffffffffffffffffffffffffffffffff\n      and\n      0xffffffffffffffffffffffffffffffffffffffff\n      and\n      dup2\n      mstore\n      0x20\n      add\n      swap1\n      dup2\n      mstore\n      0x20\n      add\n      0x00\n      keccak256\n        /* \"contracts/Expenses.sol\":1461:1496  participantLedger[_creditor].debits */\n      0x00\n      add\n        /* \"contracts/Expenses.sol\":1502:1507  debit */\n      dup2\n        /* \"contracts/Expenses.sol\":1461:1508  participantLedger[_creditor].debits.push(debit) */\n      swap1\n      dup1\n      0x01\n      dup2\n      sload\n      add\n      dup1\n      dup3\n      sstore\n      dup1\n      swap2\n      pop\n      pop\n      0x01\n      swap1\n      sub\n      swap1\n      0x00\n      mstore\n      keccak256(0x00, 0x20)\n      swap1\n      0x03\n      mul\n      add\n      0x00\n      swap1\n      swap2\n      swap1\n      swap2\n      swap1\n      swap2\n      pop\n      0x00\n      dup3\n      add\n      mload\n      dup2\n      0x00\n      add\n      sstore\n      0x20\n      dup3\n      add\n      mload\n      dup2\n      0x01\n      add\n      exp(0x0100, 0x00)\n      dup2\n      sload\n      dup2\n      0xffffffffffffffffffffffffffffffffffffffff\n      mul\n      not\n      and\n      swap1\n      dup4\n      0xffffffffffffffffffffffffffffffffffffffff\n      and\n      mul\n      or\n      swap1\n      sstore\n      pop\n      0x40\n      dup3\n      add\n      mload\n      dup2\n      0x02\n      add\n      swap1\n      dup2\n      tag_55\n      swap2\n      swap1\n      tag_56\n      jump\t// in\n    tag_55:\n      pop\n      pop\n      pop\n        /* \"contracts/Expenses.sol\":1523:1560  NewCredit(_creditor, _asset, _amount) */\n      0xc316d685424d9f980b99e161b781b1c19a5ec59c91f22cb765b77d01cb11d726\n        /* \"contracts/Expenses.sol\":1533:1542  _creditor */\n      dup7\n        /* \"contracts/Expenses.sol\":1544:1550  _asset */\n      dup6\n        /* \"contracts/Expenses.sol\":1552:1559  _amount */\n      dup8\n        /* \"contracts/Expenses.sol\":1523:1560  NewCredit(_creditor, _asset, _amount) */\n      mload(0x40)\n      tag_57\n      swap4\n      swap3\n      swap2\n      swap1\n      tag_58\n      jump\t// in\n    tag_57:\n      mload(0x40)\n      dup1\n      swap2\n      sub\n      swap1\n      log1\n        /* \"contracts/Expenses.sol\":1575:1581  uint i */\n      0x00\n        /* \"contracts/Expenses.sol\":1571:1857  for(uint i = 0; i < _debtors.length; i++){... */\n    tag_59:\n        /* \"contracts/Expenses.sol\":1591:1599  _debtors */\n      dup4\n        /* \"contracts/Expenses.sol\":1591:1606  _debtors.length */\n      mload\n        /* \"contracts/Expenses.sol\":1587:1588  i */\n      dup2\n        /* \"contracts/Expenses.sol\":1587:1606  i < _debtors.length */\n      lt\n        /* \"contracts/Expenses.sol\":1571:1857  for(uint i = 0; i < _debtors.length; i++){... */\n      iszero\n      tag_60\n      jumpi\n        /* \"contracts/Expenses.sol\":1626:1651  LedgerEntry memory credit */\n      0x00\n        /* \"contracts/Expenses.sol\":1654:1712  LedgerEntry(_amount/_debtors.length, _asset, _description) */\n      mload(0x40)\n      dup1\n      0x60\n      add\n      0x40\n      mstore\n      dup1\n        /* \"contracts/Expenses.sol\":1674:1682  _debtors */\n      dup7\n        /* \"contracts/Expenses.sol\":1674:1689  _debtors.length */\n      mload\n        /* \"contracts/Expenses.sol\":1666:1673  _amount */\n      dup10\n        /* \"contracts/Expenses.sol\":1666:1689  _amount/_debtors.length */\n      tag_62\n      swap2\n      swap1\n      tag_63\n      jump\t// in\n    tag_62:\n        /* \"contracts/Expenses.sol\":1654:1712  LedgerEntry(_amount/_debtors.length, _asset, _description) */\n      dup2\n      mstore\n      0x20\n      add\n        /* \"contracts/Expenses.sol\":1691:1697  _asset */\n      dup8\n        /* \"contracts/Expenses.sol\":1654:1712  LedgerEntry(_amount/_debtors.length, _asset, _description) */\n      0xffffffffffffffffffffffffffffffffffffffff\n      and\n      dup2\n      mstore\n      0x20\n      add\n        /* \"contracts/Expenses.sol\":1699:1711  _description */\n      dup6\n        /* \"contracts/Expenses.sol\":1654:1712  LedgerEntry(_amount/_debtors.length, _asset, _description) */\n      dup2\n      mstore\n      pop\n        /* \"contracts/Expenses.sol\":1626:1712  LedgerEntry memory credit = LedgerEntry(_amount/_debtors.length, _asset, _description) */\n      swap1\n      pop\n        /* \"contracts/Expenses.sol\":1726:1743  participantLedger */\n      0x00\n        /* \"contracts/Expenses.sol\":1726:1756  participantLedger[_debtors[i]] */\n      dup1\n        /* \"contracts/Expenses.sol\":1744:1752  _debtors */\n      dup7\n        /* \"contracts/Expenses.sol\":1753:1754  i */\n      dup5\n        /* \"contracts/Expenses.sol\":1744:1755  _debtors[i] */\n      dup2\n      mload\n      dup2\n      lt\n      tag_64\n      jumpi\n      tag_65\n      tag_66\n      jump\t// in\n    tag_65:\n    tag_64:\n      0x20\n      mul\n      0x20\n      add\n      add\n      mload\n        /* \"contracts/Expenses.sol\":1726:1756  participantLedger[_debtors[i]] */\n      0xffffffffffffffffffffffffffffffffffffffff\n      and\n      0xffffffffffffffffffffffffffffffffffffffff\n      and\n      dup2\n      mstore\n      0x20\n      add\n      swap1\n      dup2\n      mstore\n      0x20\n      add\n      0x00\n      keccak256\n        /* \"contracts/Expenses.sol\":1726:1764  participantLedger[_debtors[i]].credits */\n      0x01\n      add\n        /* \"contracts/Expenses.sol\":1770:1776  credit */\n      dup2\n        /* \"contracts/Expenses.sol\":1726:1777  participantLedger[_debtors[i]].credits.push(credit) */\n      swap1\n      dup1\n      0x01\n      dup2\n      sload\n      add\n      dup1\n      dup3\n      sstore\n      dup1\n      swap2\n      pop\n      pop\n      0x01\n      swap1\n      sub\n      swap1\n      0x00\n      mstore\n      keccak256(0x00, 0x20)\n      swap1\n      0x03\n      mul\n      add\n      0x00\n      swap1\n      swap2\n      swap1\n      swap2\n      swap1\n      swap2\n      pop\n      0x00\n      dup3\n      add\n      mload\n      dup2\n      0x00\n      add\n      sstore\n      0x20\n      dup3\n      add\n      mload\n      dup2\n      0x01\n      add\n      exp(0x0100, 0x00)\n      dup2\n      sload\n      dup2\n      0xffffffffffffffffffffffffffffffffffffffff\n      mul\n      not\n      and\n      swap1\n      dup4\n      0xffffffffffffffffffffffffffffffffffffffff\n      and\n      mul\n      or\n      swap1\n      sstore\n      pop\n      0x40\n      dup3\n      add\n      mload\n      dup2\n      0x02\n      add\n      swap1\n      dup2\n      tag_68\n      swap2\n      swap1\n      tag_56\n      jump\t// in\n    tag_68:\n      pop\n      pop\n      pop\n        /* \"contracts/Expenses.sol\":1796:1846  NewDebit(_debtors[i], credit.asset, credit.amount) */\n      0xadaf394892b1b52049899c89e60475167c97dca974e9ad433c41ca79d124df9a\n        /* \"contracts/Expenses.sol\":1805:1813  _debtors */\n      dup6\n        /* \"contracts/Expenses.sol\":1814:1815  i */\n      dup4\n        /* \"contracts/Expenses.sol\":1805:1816  _debtors[i] */\n      dup2\n      mload\n      dup2\n      lt\n      tag_69\n      jumpi\n      tag_70\n      tag_66\n      jump\t// in\n    tag_70:\n    tag_69:\n      0x20\n      mul\n      0x20\n      add\n      add\n      mload\n        /* \"contracts/Expenses.sol\":1818:1824  credit */\n      dup3\n        /* \"contracts/Expenses.sol\":1818:1830  credit.asset */\n      0x20\n      add\n      mload\n        /* \"contracts/Expenses.sol\":1832:1838  credit */\n      dup4\n        /* \"contracts/Expenses.sol\":1832:1845  credit.amount */\n      0x00\n      add\n      mload\n        /* \"contracts/Expenses.sol\":1796:1846  NewDebit(_debtors[i], credit.asset, credit.amount) */\n      mload(0x40)\n      tag_71\n      swap4\n      swap3\n      swap2\n      swap1\n      tag_58\n      jump\t// in\n    tag_71:\n      mload(0x40)\n      dup1\n      swap2\n      sub\n      swap1\n      log1\n        /* \"contracts/Expenses.sol\":1612:1857  {... */\n      pop\n        /* \"contracts/Expenses.sol\":1608:1611  i++ */\n      dup1\n      dup1\n      0x01\n      add\n      swap2\n      pop\n      pop\n        /* \"contracts/Expenses.sol\":1571:1857  for(uint i = 0; i < _debtors.length; i++){... */\n      jump(tag_59)\n    tag_60:\n      pop\n        /* \"contracts/Expenses.sol\":1340:1863  {... */\n      pop\n        /* \"contracts/Expenses.sol\":1186:1863  function addCreditSimple(address _creditor, uint _amount, address _asset, address[] memory _debtors, string memory _description) external onlyParticipant {... */\n      pop\n      pop\n      pop\n      pop\n      pop\n      jump\t// out\n        /* \"contracts/Expenses.sol\":697:910  function addParticipant(address _participant) external onlyParticipant {... */\n    tag_29:\n        /* \"contracts/Expenses.sol\":600:604  true */\n      0x01\n        /* \"contracts/Expenses.sol\":571:604  isParticipant[msg.sender] == true */\n      iszero\n      iszero\n        /* \"contracts/Expenses.sol\":571:584  isParticipant */\n      0x01\n        /* \"contracts/Expenses.sol\":571:596  isParticipant[msg.sender] */\n      0x00\n        /* \"contracts/Expenses.sol\":585:595  msg.sender */\n      caller\n        /* \"contracts/Expenses.sol\":571:596  isParticipant[msg.sender] */\n      0xffffffffffffffffffffffffffffffffffffffff\n      and\n      0xffffffffffffffffffffffffffffffffffffffff\n      and\n      dup2\n      mstore\n      0x20\n      add\n      swap1\n      dup2\n      mstore\n      0x20\n      add\n      0x00\n      keccak256\n      0x00\n      swap1\n      sload\n      swap1\n      0x0100\n      exp\n      swap1\n      div\n      0xff\n      and\n        /* \"contracts/Expenses.sol\":571:604  isParticipant[msg.sender] == true */\n      iszero\n      iszero\n      eq\n        /* \"contracts/Expenses.sol\":563:605  require(isParticipant[msg.sender] == true) */\n      tag_73\n      jumpi\n      0x00\n      dup1\n      revert\n    tag_73:\n        /* \"contracts/Expenses.sol\":817:822  false */\n      0x00\n        /* \"contracts/Expenses.sol\":786:822  isParticipant[_participant] == false */\n      iszero\n      iszero\n        /* \"contracts/Expenses.sol\":786:799  isParticipant */\n      0x01\n        /* \"contracts/Expenses.sol\":786:813  isParticipant[_participant] */\n      0x00\n        /* \"contracts/Expenses.sol\":800:812  _participant */\n      dup4\n        /* \"contracts/Expenses.sol\":786:813  isParticipant[_participant] */\n      0xffffffffffffffffffffffffffffffffffffffff\n      and\n      0xffffffffffffffffffffffffffffffffffffffff\n      and\n      dup2\n      mstore\n      0x20\n      add\n      swap1\n      dup2\n      mstore\n      0x20\n      add\n      0x00\n      keccak256\n      0x00\n      swap1\n      sload\n      swap1\n      0x0100\n      exp\n      swap1\n      div\n      0xff\n      and\n        /* \"contracts/Expenses.sol\":786:822  isParticipant[_participant] == false */\n      iszero\n      iszero\n      eq\n        /* \"contracts/Expenses.sol\":778:859  require(isParticipant[_participant] == false, \"address is already a participant\") */\n      tag_75\n      jumpi\n      mload(0x40)\n      0x08c379a000000000000000000000000000000000000000000000000000000000\n      dup2\n      mstore\n      0x04\n      add\n      tag_76\n      swap1\n      tag_77\n      jump\t// in\n    tag_76:\n      mload(0x40)\n      dup1\n      swap2\n      sub\n      swap1\n      revert\n    tag_75:\n        /* \"contracts/Expenses.sol\":899:903  true */\n      0x01\n        /* \"contracts/Expenses.sol\":869:882  isParticipant */\n      dup1\n        /* \"contracts/Expenses.sol\":869:896  isParticipant[_participant] */\n      0x00\n        /* \"contracts/Expenses.sol\":883:895  _participant */\n      dup4\n        /* \"contracts/Expenses.sol\":869:896  isParticipant[_participant] */\n      0xffffffffffffffffffffffffffffffffffffffff\n      and\n      0xffffffffffffffffffffffffffffffffffffffff\n      and\n      dup2\n      mstore\n      0x20\n      add\n      swap1\n      dup2\n      mstore\n      0x20\n      add\n      0x00\n      keccak256\n      0x00\n        /* \"contracts/Expenses.sol\":869:903  isParticipant[_participant] = true */\n      0x0100\n      exp\n      dup2\n      sload\n      dup2\n      0xff\n      mul\n      not\n      and\n      swap1\n      dup4\n      iszero\n      iszero\n      mul\n      or\n      swap1\n      sstore\n      pop\n        /* \"contracts/Expenses.sol\":697:910  function addParticipant(address _participant) external onlyParticipant {... */\n      pop\n      jump\t// out\n        /* \"contracts/Expenses.sol\":916:1180  function checkDebtors(address[] memory _debtors) internal {... */\n    tag_53:\n        /* \"contracts/Expenses.sol\":988:994  uint i */\n      0x00\n        /* \"contracts/Expenses.sol\":984:1174  for(uint i = 0; i < _debtors.length; i++){... */\n    tag_79:\n        /* \"contracts/Expenses.sol\":1004:1012  _debtors */\n      dup2\n        /* \"contracts/Expenses.sol\":1004:1019  _debtors.length */\n      mload\n        /* \"contracts/Expenses.sol\":1000:1001  i */\n      dup2\n        /* \"contracts/Expenses.sol\":1000:1019  i < _debtors.length */\n      lt\n        /* \"contracts/Expenses.sol\":984:1174  for(uint i = 0; i < _debtors.length; i++){... */\n      iszero\n      tag_80\n      jumpi\n        /* \"contracts/Expenses.sol\":1077:1081  true */\n      0x01\n        /* \"contracts/Expenses.sol\":1047:1081  isParticipant[_debtors[i]] == true */\n      iszero\n      iszero\n        /* \"contracts/Expenses.sol\":1047:1060  isParticipant */\n      0x01\n        /* \"contracts/Expenses.sol\":1047:1073  isParticipant[_debtors[i]] */\n      0x00\n        /* \"contracts/Expenses.sol\":1061:1069  _debtors */\n      dup5\n        /* \"contracts/Expenses.sol\":1070:1071  i */\n      dup5\n        /* \"contracts/Expenses.sol\":1061:1072  _debtors[i] */\n      dup2\n      mload\n      dup2\n      lt\n      tag_82\n      jumpi\n      tag_83\n      tag_66\n      jump\t// in\n    tag_83:\n    tag_82:\n      0x20\n      mul\n      0x20\n      add\n      add\n      mload\n        /* \"contracts/Expenses.sol\":1047:1073  isParticipant[_debtors[i]] */\n      0xffffffffffffffffffffffffffffffffffffffff\n      and\n      0xffffffffffffffffffffffffffffffffffffffff\n      and\n      dup2\n      mstore\n      0x20\n      add\n      swap1\n      dup2\n      mstore\n      0x20\n      add\n      0x00\n      keccak256\n      0x00\n      swap1\n      sload\n      swap1\n      0x0100\n      exp\n      swap1\n      div\n      0xff\n      and\n        /* \"contracts/Expenses.sol\":1047:1081  isParticipant[_debtors[i]] == true */\n      iszero\n      iszero\n      eq\n        /* \"contracts/Expenses.sol\":1039:1116  require(isParticipant[_debtors[i]] == true, \"debtor is is not a participant\") */\n      tag_84\n      jumpi\n      mload(0x40)\n      0x08c379a000000000000000000000000000000000000000000000000000000000\n      dup2\n      mstore\n      0x04\n      add\n      tag_85\n      swap1\n      tag_86\n      jump\t// in\n    tag_85:\n      mload(0x40)\n      dup1\n      swap2\n      sub\n      swap1\n      revert\n    tag_84:\n        /* \"contracts/Expenses.sol\":1159:1163  true */\n      0x01\n        /* \"contracts/Expenses.sol\":1130:1143  isParticipant */\n      dup1\n        /* \"contracts/Expenses.sol\":1130:1156  isParticipant[_debtors[i]] */\n      0x00\n        /* \"contracts/Expenses.sol\":1144:1152  _debtors */\n      dup5\n        /* \"contracts/Expenses.sol\":1153:1154  i */\n      dup5\n        /* \"contracts/Expenses.sol\":1144:1155  _debtors[i] */\n      dup2\n      mload\n      dup2\n      lt\n      tag_87\n      jumpi\n      tag_88\n      tag_66\n      jump\t// in\n    tag_88:\n    tag_87:\n      0x20\n      mul\n      0x20\n      add\n      add\n      mload\n        /* \"contracts/Expenses.sol\":1130:1156  isParticipant[_debtors[i]] */\n      0xffffffffffffffffffffffffffffffffffffffff\n      and\n      0xffffffffffffffffffffffffffffffffffffffff\n      and\n      dup2\n      mstore\n      0x20\n      add\n      swap1\n      dup2\n      mstore\n      0x20\n      add\n      0x00\n      keccak256\n      0x00\n        /* \"contracts/Expenses.sol\":1130:1163  isParticipant[_debtors[i]] = true */\n      0x0100\n      exp\n      dup2\n      sload\n      dup2\n      0xff\n      mul\n      not\n      and\n      swap1\n      dup4\n      iszero\n      iszero\n      mul\n      or\n      swap1\n      sstore\n      pop\n        /* \"contracts/Expenses.sol\":1021:1024  i++ */\n      dup1\n      dup1\n      0x01\n      add\n      swap2\n      pop\n      pop\n        /* \"contracts/Expenses.sol\":984:1174  for(uint i = 0; i < _debtors.length; i++){... */\n      jump(tag_79)\n    tag_80:\n      pop\n        /* \"contracts/Expenses.sol\":916:1180  function checkDebtors(address[] memory _debtors) internal {... */\n      pop\n      jump\t// out\n        /* \"#utility.yul\":7:82   */\n    tag_89:\n        /* \"#utility.yul\":40:46   */\n      0x00\n        /* \"#utility.yul\":73:75   */\n      0x40\n        /* \"#utility.yul\":67:76   */\n      mload\n        /* \"#utility.yul\":57:76   */\n      swap1\n      pop\n        /* \"#utility.yul\":7:82   */\n      swap1\n      jump\t// out\n        /* \"#utility.yul\":88:205   */\n    tag_90:\n        /* \"#utility.yul\":197:198   */\n      0x00\n        /* \"#utility.yul\":194:195   */\n      dup1\n        /* \"#utility.yul\":187:199   */\n      revert\n        /* \"#utility.yul\":211:328   */\n    tag_91:\n        /* \"#utility.yul\":320:321   */\n      0x00\n        /* \"#utility.yul\":317:318   */\n      dup1\n        /* \"#utility.yul\":310:322   */\n      revert\n        /* \"#utility.yul\":334:460   */\n    tag_92:\n        /* \"#utility.yul\":371:378   */\n      0x00\n        /* \"#utility.yul\":411:453   */\n      0xffffffffffffffffffffffffffffffffffffffff\n        /* \"#utility.yul\":404:409   */\n      dup3\n        /* \"#utility.yul\":400:454   */\n      and\n        /* \"#utility.yul\":389:454   */\n      swap1\n      pop\n        /* \"#utility.yul\":334:460   */\n      swap2\n      swap1\n      pop\n      jump\t// out\n        /* \"#utility.yul\":466:562   */\n    tag_93:\n        /* \"#utility.yul\":503:510   */\n      0x00\n        /* \"#utility.yul\":532:556   */\n      tag_159\n        /* \"#utility.yul\":550:555   */\n      dup3\n        /* \"#utility.yul\":532:556   */\n      tag_92\n      jump\t// in\n    tag_159:\n        /* \"#utility.yul\":521:556   */\n      swap1\n      pop\n        /* \"#utility.yul\":466:562   */\n      swap2\n      swap1\n      pop\n      jump\t// out\n        /* \"#utility.yul\":568:690   */\n    tag_94:\n        /* \"#utility.yul\":641:665   */\n      tag_161\n        /* \"#utility.yul\":659:664   */\n      dup2\n        /* \"#utility.yul\":641:665   */\n      tag_93\n      jump\t// in\n    tag_161:\n        /* \"#utility.yul\":634:639   */\n      dup2\n        /* \"#utility.yul\":631:666   */\n      eq\n        /* \"#utility.yul\":621:684   */\n      tag_162\n      jumpi\n        /* \"#utility.yul\":680:681   */\n      0x00\n        /* \"#utility.yul\":677:678   */\n      dup1\n        /* \"#utility.yul\":670:682   */\n      revert\n        /* \"#utility.yul\":621:684   */\n    tag_162:\n        /* \"#utility.yul\":568:690   */\n      pop\n      jump\t// out\n        /* \"#utility.yul\":696:835   */\n    tag_95:\n        /* \"#utility.yul\":742:747   */\n      0x00\n        /* \"#utility.yul\":780:786   */\n      dup2\n        /* \"#utility.yul\":767:787   */\n      calldataload\n        /* \"#utility.yul\":758:787   */\n      swap1\n      pop\n        /* \"#utility.yul\":796:829   */\n      tag_164\n        /* \"#utility.yul\":823:828   */\n      dup2\n        /* \"#utility.yul\":796:829   */\n      tag_94\n      jump\t// in\n    tag_164:\n        /* \"#utility.yul\":696:835   */\n      swap3\n      swap2\n      pop\n      pop\n      jump\t// out\n        /* \"#utility.yul\":841:1170   */\n    tag_10:\n        /* \"#utility.yul\":900:906   */\n      0x00\n        /* \"#utility.yul\":949:951   */\n      0x20\n        /* \"#utility.yul\":937:946   */\n      dup3\n        /* \"#utility.yul\":928:935   */\n      dup5\n        /* \"#utility.yul\":924:947   */\n      sub\n        /* \"#utility.yul\":920:952   */\n      slt\n        /* \"#utility.yul\":917:1036   */\n      iszero\n      tag_166\n      jumpi\n        /* \"#utility.yul\":955:1034   */\n      tag_167\n      tag_90\n      jump\t// in\n    tag_167:\n        /* \"#utility.yul\":917:1036   */\n    tag_166:\n        /* \"#utility.yul\":1075:1076   */\n      0x00\n        /* \"#utility.yul\":1100:1153   */\n      tag_168\n        /* \"#utility.yul\":1145:1152   */\n      dup5\n        /* \"#utility.yul\":1136:1142   */\n      dup3\n        /* \"#utility.yul\":1125:1134   */\n      dup6\n        /* \"#utility.yul\":1121:1143   */\n      add\n        /* \"#utility.yul\":1100:1153   */\n      tag_95\n      jump\t// in\n    tag_168:\n        /* \"#utility.yul\":1090:1153   */\n      swap2\n      pop\n        /* \"#utility.yul\":1046:1163   */\n      pop\n        /* \"#utility.yul\":841:1170   */\n      swap3\n      swap2\n      pop\n      pop\n      jump\t// out\n        /* \"#utility.yul\":1176:1317   */\n    tag_96:\n        /* \"#utility.yul\":1270:1276   */\n      0x00\n        /* \"#utility.yul\":1304:1309   */\n      dup2\n        /* \"#utility.yul\":1298:1310   */\n      mload\n        /* \"#utility.yul\":1288:1310   */\n      swap1\n      pop\n        /* \"#utility.yul\":1176:1317   */\n      swap2\n      swap1\n      pop\n      jump\t// out\n        /* \"#utility.yul\":1323:1534   */\n    tag_97:\n        /* \"#utility.yul\":1449:1460   */\n      0x00\n        /* \"#utility.yul\":1483:1489   */\n      dup3\n        /* \"#utility.yul\":1478:1481   */\n      dup3\n        /* \"#utility.yul\":1471:1490   */\n      mstore\n        /* \"#utility.yul\":1523:1527   */\n      0x20\n        /* \"#utility.yul\":1518:1521   */\n      dup3\n        /* \"#utility.yul\":1514:1528   */\n      add\n        /* \"#utility.yul\":1499:1528   */\n      swap1\n      pop\n        /* \"#utility.yul\":1323:1534   */\n      swap3\n      swap2\n      pop\n      pop\n      jump\t// out\n        /* \"#utility.yul\":1540:1699   */\n    tag_98:\n        /* \"#utility.yul\":1634:1638   */\n      0x00\n        /* \"#utility.yul\":1657:1660   */\n      dup2\n        /* \"#utility.yul\":1649:1660   */\n      swap1\n      pop\n        /* \"#utility.yul\":1687:1691   */\n      0x20\n        /* \"#utility.yul\":1682:1685   */\n      dup3\n        /* \"#utility.yul\":1678:1692   */\n      add\n        /* \"#utility.yul\":1670:1692   */\n      swap1\n      pop\n        /* \"#utility.yul\":1540:1699   */\n      swap2\n      swap1\n      pop\n      jump\t// out\n        /* \"#utility.yul\":1705:1782   */\n    tag_99:\n        /* \"#utility.yul\":1742:1749   */\n      0x00\n        /* \"#utility.yul\":1771:1776   */\n      dup2\n        /* \"#utility.yul\":1760:1776   */\n      swap1\n      pop\n        /* \"#utility.yul\":1705:1782   */\n      swap2\n      swap1\n      pop\n      jump\t// out\n        /* \"#utility.yul\":1788:1896   */\n    tag_100:\n        /* \"#utility.yul\":1865:1889   */\n      tag_174\n        /* \"#utility.yul\":1883:1888   */\n      dup2\n        /* \"#utility.yul\":1865:1889   */\n      tag_99\n      jump\t// in\n    tag_174:\n        /* \"#utility.yul\":1860:1863   */\n      dup3\n        /* \"#utility.yul\":1853:1890   */\n      mstore\n        /* \"#utility.yul\":1788:1896   */\n      pop\n      pop\n      jump\t// out\n        /* \"#utility.yul\":1902:2010   */\n    tag_101:\n        /* \"#utility.yul\":1979:2003   */\n      tag_176\n        /* \"#utility.yul\":1997:2002   */\n      dup2\n        /* \"#utility.yul\":1979:2003   */\n      tag_93\n      jump\t// in\n    tag_176:\n        /* \"#utility.yul\":1974:1977   */\n      dup3\n        /* \"#utility.yul\":1967:2004   */\n      mstore\n        /* \"#utility.yul\":1902:2010   */\n      pop\n      pop\n      jump\t// out\n        /* \"#utility.yul\":2016:2115   */\n    tag_102:\n        /* \"#utility.yul\":2068:2074   */\n      0x00\n        /* \"#utility.yul\":2102:2107   */\n      dup2\n        /* \"#utility.yul\":2096:2108   */\n      mload\n        /* \"#utility.yul\":2086:2108   */\n      swap1\n      pop\n        /* \"#utility.yul\":2016:2115   */\n      swap2\n      swap1\n      pop\n      jump\t// out\n        /* \"#utility.yul\":2121:2280   */\n    tag_103:\n        /* \"#utility.yul\":2195:2206   */\n      0x00\n        /* \"#utility.yul\":2229:2235   */\n      dup3\n        /* \"#utility.yul\":2224:2227   */\n      dup3\n        /* \"#utility.yul\":2217:2236   */\n      mstore\n        /* \"#utility.yul\":2269:2273   */\n      0x20\n        /* \"#utility.yul\":2264:2267   */\n      dup3\n        /* \"#utility.yul\":2260:2274   */\n      add\n        /* \"#utility.yul\":2245:2274   */\n      swap1\n      pop\n        /* \"#utility.yul\":2121:2280   */\n      swap3\n      swap2\n      pop\n      pop\n      jump\t// out\n        /* \"#utility.yul\":2286:2425   */\n    tag_104:\n        /* \"#utility.yul\":2375:2381   */\n      dup3\n        /* \"#utility.yul\":2370:2373   */\n      dup2\n        /* \"#utility.yul\":2365:2368   */\n      dup4\n        /* \"#utility.yul\":2359:2382   */\n      mcopy\n        /* \"#utility.yul\":2416:2417   */\n      0x00\n        /* \"#utility.yul\":2407:2413   */\n      dup4\n        /* \"#utility.yul\":2402:2405   */\n      dup4\n        /* \"#utility.yul\":2398:2414   */\n      add\n        /* \"#utility.yul\":2391:2418   */\n      mstore\n        /* \"#utility.yul\":2286:2425   */\n      pop\n      pop\n      pop\n      jump\t// out\n        /* \"#utility.yul\":2431:2533   */\n    tag_105:\n        /* \"#utility.yul\":2472:2478   */\n      0x00\n        /* \"#utility.yul\":2523:2525   */\n      0x1f\n        /* \"#utility.yul\":2519:2526   */\n      not\n        /* \"#utility.yul\":2514:2516   */\n      0x1f\n        /* \"#utility.yul\":2507:2512   */\n      dup4\n        /* \"#utility.yul\":2503:2517   */\n      add\n        /* \"#utility.yul\":2499:2527   */\n      and\n        /* \"#utility.yul\":2489:2527   */\n      swap1\n      pop\n        /* \"#utility.yul\":2431:2533   */\n      swap2\n      swap1\n      pop\n      jump\t// out\n        /* \"#utility.yul\":2539:2896   */\n    tag_106:\n        /* \"#utility.yul\":2617:2620   */\n      0x00\n        /* \"#utility.yul\":2645:2684   */\n      tag_182\n        /* \"#utility.yul\":2678:2683   */\n      dup3\n        /* \"#utility.yul\":2645:2684   */\n      tag_102\n      jump\t// in\n    tag_182:\n        /* \"#utility.yul\":2700:2761   */\n      tag_183\n        /* \"#utility.yul\":2754:2760   */\n      dup2\n        /* \"#utility.yul\":2749:2752   */\n      dup6\n        /* \"#utility.yul\":2700:2761   */\n      tag_103\n      jump\t// in\n    tag_183:\n        /* \"#utility.yul\":2693:2761   */\n      swap4\n      pop\n        /* \"#utility.yul\":2770:2835   */\n      tag_184\n        /* \"#utility.yul\":2828:2834   */\n      dup2\n        /* \"#utility.yul\":2823:2826   */\n      dup6\n        /* \"#utility.yul\":2816:2820   */\n      0x20\n        /* \"#utility.yul\":2809:2814   */\n      dup7\n        /* \"#utility.yul\":2805:2821   */\n      add\n        /* \"#utility.yul\":2770:2835   */\n      tag_104\n      jump\t// in\n    tag_184:\n        /* \"#utility.yul\":2860:2889   */\n      tag_185\n        /* \"#utility.yul\":2882:2888   */\n      dup2\n        /* \"#utility.yul\":2860:2889   */\n      tag_105\n      jump\t// in\n    tag_185:\n        /* \"#utility.yul\":2855:2858   */\n      dup5\n        /* \"#utility.yul\":2851:2890   */\n      add\n        /* \"#utility.yul\":2844:2890   */\n      swap2\n      pop\n        /* \"#utility.yul\":2621:2896   */\n      pop\n        /* \"#utility.yul\":2539:2896   */\n      swap3\n      swap2\n      pop\n      pop\n      jump\t// out\n        /* \"#utility.yul\":2968:3752   */\n    tag_107:\n        /* \"#utility.yul\":3081:3084   */\n      0x00\n        /* \"#utility.yul\":3117:3121   */\n      0x60\n        /* \"#utility.yul\":3112:3115   */\n      dup4\n        /* \"#utility.yul\":3108:3122   */\n      add\n        /* \"#utility.yul\":3206:3210   */\n      0x00\n        /* \"#utility.yul\":3199:3204   */\n      dup4\n        /* \"#utility.yul\":3195:3211   */\n      add\n        /* \"#utility.yul\":3189:3212   */\n      mload\n        /* \"#utility.yul\":3225:3288   */\n      tag_187\n        /* \"#utility.yul\":3282:3286   */\n      0x00\n        /* \"#utility.yul\":3277:3280   */\n      dup7\n        /* \"#utility.yul\":3273:3287   */\n      add\n        /* \"#utility.yul\":3259:3271   */\n      dup3\n        /* \"#utility.yul\":3225:3288   */\n      tag_100\n      jump\t// in\n    tag_187:\n        /* \"#utility.yul\":3132:3298   */\n      pop\n        /* \"#utility.yul\":3381:3385   */\n      0x20\n        /* \"#utility.yul\":3374:3379   */\n      dup4\n        /* \"#utility.yul\":3370:3386   */\n      add\n        /* \"#utility.yul\":3364:3387   */\n      mload\n        /* \"#utility.yul\":3400:3463   */\n      tag_188\n        /* \"#utility.yul\":3457:3461   */\n      0x20\n        /* \"#utility.yul\":3452:3455   */\n      dup7\n        /* \"#utility.yul\":3448:3462   */\n      add\n        /* \"#utility.yul\":3434:3446   */\n      dup3\n        /* \"#utility.yul\":3400:3463   */\n      tag_101\n      jump\t// in\n    tag_188:\n        /* \"#utility.yul\":3308:3473   */\n      pop\n        /* \"#utility.yul\":3562:3566   */\n      0x40\n        /* \"#utility.yul\":3555:3560   */\n      dup4\n        /* \"#utility.yul\":3551:3567   */\n      add\n        /* \"#utility.yul\":3545:3568   */\n      mload\n        /* \"#utility.yul\":3615:3618   */\n      dup5\n        /* \"#utility.yul\":3609:3613   */\n      dup3\n        /* \"#utility.yul\":3605:3619   */\n      sub\n        /* \"#utility.yul\":3598:3602   */\n      0x40\n        /* \"#utility.yul\":3593:3596   */\n      dup7\n        /* \"#utility.yul\":3589:3603   */\n      add\n        /* \"#utility.yul\":3582:3620   */\n      mstore\n        /* \"#utility.yul\":3641:3714   */\n      tag_189\n        /* \"#utility.yul\":3709:3713   */\n      dup3\n        /* \"#utility.yul\":3695:3707   */\n      dup3\n        /* \"#utility.yul\":3641:3714   */\n      tag_106\n      jump\t// in\n    tag_189:\n        /* \"#utility.yul\":3633:3714   */\n      swap2\n      pop\n        /* \"#utility.yul\":3483:3725   */\n      pop\n        /* \"#utility.yul\":3742:3746   */\n      dup1\n        /* \"#utility.yul\":3735:3746   */\n      swap2\n      pop\n        /* \"#utility.yul\":3086:3752   */\n      pop\n        /* \"#utility.yul\":2968:3752   */\n      swap3\n      swap2\n      pop\n      pop\n      jump\t// out\n        /* \"#utility.yul\":3758:4022   */\n    tag_108:\n        /* \"#utility.yul\":3881:3891   */\n      0x00\n        /* \"#utility.yul\":3916:4016   */\n      tag_191\n        /* \"#utility.yul\":4012:4015   */\n      dup4\n        /* \"#utility.yul\":4004:4010   */\n      dup4\n        /* \"#utility.yul\":3916:4016   */\n      tag_107\n      jump\t// in\n    tag_191:\n        /* \"#utility.yul\":3902:4016   */\n      swap1\n      pop\n        /* \"#utility.yul\":3758:4022   */\n      swap3\n      swap2\n      pop\n      pop\n      jump\t// out\n        /* \"#utility.yul\":4028:4168   */\n    tag_109:\n        /* \"#utility.yul\":4125:4129   */\n      0x00\n        /* \"#utility.yul\":4157:4161   */\n      0x20\n        /* \"#utility.yul\":4152:4155   */\n      dup3\n        /* \"#utility.yul\":4148:4162   */\n      add\n        /* \"#utility.yul\":4140:4162   */\n      swap1\n      pop\n        /* \"#utility.yul\":4028:4168   */\n      swap2\n      swap1\n      pop\n      jump\t// out\n        /* \"#utility.yul\":4244:5371   */\n    tag_110:\n        /* \"#utility.yul\":4417:4420   */\n      0x00\n        /* \"#utility.yul\":4446:4527   */\n      tag_194\n        /* \"#utility.yul\":4521:4526   */\n      dup3\n        /* \"#utility.yul\":4446:4527   */\n      tag_96\n      jump\t// in\n    tag_194:\n        /* \"#utility.yul\":4543:4656   */\n      tag_195\n        /* \"#utility.yul\":4649:4655   */\n      dup2\n        /* \"#utility.yul\":4644:4647   */\n      dup6\n        /* \"#utility.yul\":4543:4656   */\n      tag_97\n      jump\t// in\n    tag_195:\n        /* \"#utility.yul\":4536:4656   */\n      swap4\n      pop\n        /* \"#utility.yul\":4682:4685   */\n      dup4\n        /* \"#utility.yul\":4727:4731   */\n      0x20\n        /* \"#utility.yul\":4719:4725   */\n      dup3\n        /* \"#utility.yul\":4715:4732   */\n      mul\n        /* \"#utility.yul\":4710:4713   */\n      dup6\n        /* \"#utility.yul\":4706:4733   */\n      add\n        /* \"#utility.yul\":4757:4840   */\n      tag_196\n        /* \"#utility.yul\":4834:4839   */\n      dup6\n        /* \"#utility.yul\":4757:4840   */\n      tag_98\n      jump\t// in\n    tag_196:\n        /* \"#utility.yul\":4863:4870   */\n      dup1\n        /* \"#utility.yul\":4894:4895   */\n      0x00\n        /* \"#utility.yul\":4879:5326   */\n    tag_197:\n        /* \"#utility.yul\":4904:4910   */\n      dup6\n        /* \"#utility.yul\":4901:4902   */\n      dup2\n        /* \"#utility.yul\":4898:4911   */\n      lt\n        /* \"#utility.yul\":4879:5326   */\n      iszero\n      tag_199\n      jumpi\n        /* \"#utility.yul\":4975:4984   */\n      dup5\n        /* \"#utility.yul\":4969:4973   */\n      dup5\n        /* \"#utility.yul\":4965:4985   */\n      sub\n        /* \"#utility.yul\":4960:4963   */\n      dup10\n        /* \"#utility.yul\":4953:4986   */\n      mstore\n        /* \"#utility.yul\":5026:5032   */\n      dup2\n        /* \"#utility.yul\":5020:5033   */\n      mload\n        /* \"#utility.yul\":5054:5172   */\n      tag_200\n        /* \"#utility.yul\":5167:5171   */\n      dup6\n        /* \"#utility.yul\":5152:5165   */\n      dup3\n        /* \"#utility.yul\":5054:5172   */\n      tag_108\n      jump\t// in\n    tag_200:\n        /* \"#utility.yul\":5046:5172   */\n      swap5\n      pop\n        /* \"#utility.yul\":5195:5282   */\n      tag_201\n        /* \"#utility.yul\":5275:5281   */\n      dup4\n        /* \"#utility.yul\":5195:5282   */\n      tag_109\n      jump\t// in\n    tag_201:\n        /* \"#utility.yul\":5185:5282   */\n      swap3\n      pop\n        /* \"#utility.yul\":5311:5315   */\n      0x20\n        /* \"#utility.yul\":5306:5309   */\n      dup11\n        /* \"#utility.yul\":5302:5316   */\n      add\n        /* \"#utility.yul\":5295:5316   */\n      swap10\n      pop\n        /* \"#utility.yul\":4939:5326   */\n      pop\n        /* \"#utility.yul\":4926:4927   */\n      0x01\n        /* \"#utility.yul\":4923:4924   */\n      dup2\n        /* \"#utility.yul\":4919:4928   */\n      add\n        /* \"#utility.yul\":4914:4928   */\n      swap1\n      pop\n        /* \"#utility.yul\":4879:5326   */\n      jump(tag_197)\n    tag_199:\n        /* \"#utility.yul\":4883:4897   */\n      pop\n        /* \"#utility.yul\":5342:5346   */\n      dup3\n        /* \"#utility.yul\":5335:5346   */\n      swap8\n      pop\n        /* \"#utility.yul\":5362:5365   */\n      dup8\n        /* \"#utility.yul\":5355:5365   */\n      swap6\n      pop\n        /* \"#utility.yul\":4422:5371   */\n      pop\n      pop\n      pop\n      pop\n      pop\n        /* \"#utility.yul\":4244:5371   */\n      swap3\n      swap2\n      pop\n      pop\n      jump\t// out\n        /* \"#utility.yul\":5377:5858   */\n    tag_13:\n        /* \"#utility.yul\":5574:5578   */\n      0x00\n        /* \"#utility.yul\":5612:5614   */\n      0x20\n        /* \"#utility.yul\":5601:5610   */\n      dup3\n        /* \"#utility.yul\":5597:5615   */\n      add\n        /* \"#utility.yul\":5589:5615   */\n      swap1\n      pop\n        /* \"#utility.yul\":5661:5670   */\n      dup2\n        /* \"#utility.yul\":5655:5659   */\n      dup2\n        /* \"#utility.yul\":5651:5671   */\n      sub\n        /* \"#utility.yul\":5647:5648   */\n      0x00\n        /* \"#utility.yul\":5636:5645   */\n      dup4\n        /* \"#utility.yul\":5632:5649   */\n      add\n        /* \"#utility.yul\":5625:5672   */\n      mstore\n        /* \"#utility.yul\":5689:5851   */\n      tag_203\n        /* \"#utility.yul\":5846:5850   */\n      dup2\n        /* \"#utility.yul\":5837:5843   */\n      dup5\n        /* \"#utility.yul\":5689:5851   */\n      tag_110\n      jump\t// in\n    tag_203:\n        /* \"#utility.yul\":5681:5851   */\n      swap1\n      pop\n        /* \"#utility.yul\":5377:5858   */\n      swap3\n      swap2\n      pop\n      pop\n      jump\t// out\n        /* \"#utility.yul\":5864:5954   */\n    tag_111:\n        /* \"#utility.yul\":5898:5905   */\n      0x00\n        /* \"#utility.yul\":5941:5946   */\n      dup2\n        /* \"#utility.yul\":5934:5947   */\n      iszero\n        /* \"#utility.yul\":5927:5948   */\n      iszero\n        /* \"#utility.yul\":5916:5948   */\n      swap1\n      pop\n        /* \"#utility.yul\":5864:5954   */\n      swap2\n      swap1\n      pop\n      jump\t// out\n        /* \"#utility.yul\":5960:6069   */\n    tag_112:\n        /* \"#utility.yul\":6041:6062   */\n      tag_206\n        /* \"#utility.yul\":6056:6061   */\n      dup2\n        /* \"#utility.yul\":6041:6062   */\n      tag_111\n      jump\t// in\n    tag_206:\n        /* \"#utility.yul\":6036:6039   */\n      dup3\n        /* \"#utility.yul\":6029:6063   */\n      mstore\n        /* \"#utility.yul\":5960:6069   */\n      pop\n      pop\n      jump\t// out\n        /* \"#utility.yul\":6075:6285   */\n    tag_22:\n        /* \"#utility.yul\":6162:6166   */\n      0x00\n        /* \"#utility.yul\":6200:6202   */\n      0x20\n        /* \"#utility.yul\":6189:6198   */\n      dup3\n        /* \"#utility.yul\":6185:6203   */\n      add\n        /* \"#utility.yul\":6177:6203   */\n      swap1\n      pop\n        /* \"#utility.yul\":6213:6278   */\n      tag_208\n        /* \"#utility.yul\":6275:6276   */\n      0x00\n        /* \"#utility.yul\":6264:6273   */\n      dup4\n        /* \"#utility.yul\":6260:6277   */\n      add\n        /* \"#utility.yul\":6251:6257   */\n      dup5\n        /* \"#utility.yul\":6213:6278   */\n      tag_112\n      jump\t// in\n    tag_208:\n        /* \"#utility.yul\":6075:6285   */\n      swap3\n      swap2\n      pop\n      pop\n      jump\t// out\n        /* \"#utility.yul\":6291:6413   */\n    tag_113:\n        /* \"#utility.yul\":6364:6388   */\n      tag_210\n        /* \"#utility.yul\":6382:6387   */\n      dup2\n        /* \"#utility.yul\":6364:6388   */\n      tag_99\n      jump\t// in\n    tag_210:\n        /* \"#utility.yul\":6357:6362   */\n      dup2\n        /* \"#utility.yul\":6354:6389   */\n      eq\n        /* \"#utility.yul\":6344:6407   */\n      tag_211\n      jumpi\n        /* \"#utility.yul\":6403:6404   */\n      0x00\n        /* \"#utility.yul\":6400:6401   */\n      dup1\n        /* \"#utility.yul\":6393:6405   */\n      revert\n        /* \"#utility.yul\":6344:6407   */\n    tag_211:\n        /* \"#utility.yul\":6291:6413   */\n      pop\n      jump\t// out\n        /* \"#utility.yul\":6419:6558   */\n    tag_114:\n        /* \"#utility.yul\":6465:6470   */\n      0x00\n        /* \"#utility.yul\":6503:6509   */\n      dup2\n        /* \"#utility.yul\":6490:6510   */\n      calldataload\n        /* \"#utility.yul\":6481:6510   */\n      swap1\n      pop\n        /* \"#utility.yul\":6519:6552   */\n      tag_213\n        /* \"#utility.yul\":6546:6551   */\n      dup2\n        /* \"#utility.yul\":6519:6552   */\n      tag_113\n      jump\t// in\n    tag_213:\n        /* \"#utility.yul\":6419:6558   */\n      swap3\n      swap2\n      pop\n      pop\n      jump\t// out\n        /* \"#utility.yul\":6564:6681   */\n    tag_115:\n        /* \"#utility.yul\":6673:6674   */\n      0x00\n        /* \"#utility.yul\":6670:6671   */\n      dup1\n        /* \"#utility.yul\":6663:6675   */\n      revert\n        /* \"#utility.yul\":6687:6867   */\n    tag_116:\n        /* \"#utility.yul\":6735:6812   */\n      0x4e487b7100000000000000000000000000000000000000000000000000000000\n        /* \"#utility.yul\":6732:6733   */\n      0x00\n        /* \"#utility.yul\":6725:6813   */\n      mstore\n        /* \"#utility.yul\":6832:6836   */\n      0x41\n        /* \"#utility.yul\":6829:6830   */\n      0x04\n        /* \"#utility.yul\":6822:6837   */\n      mstore\n        /* \"#utility.yul\":6856:6860   */\n      0x24\n        /* \"#utility.yul\":6853:6854   */\n      0x00\n        /* \"#utility.yul\":6846:6861   */\n      revert\n        /* \"#utility.yul\":6873:7154   */\n    tag_117:\n        /* \"#utility.yul\":6956:6983   */\n      tag_217\n        /* \"#utility.yul\":6978:6982   */\n      dup3\n        /* \"#utility.yul\":6956:6983   */\n      tag_105\n      jump\t// in\n    tag_217:\n        /* \"#utility.yul\":6948:6954   */\n      dup2\n        /* \"#utility.yul\":6944:6984   */\n      add\n        /* \"#utility.yul\":7086:7092   */\n      dup2\n        /* \"#utility.yul\":7074:7084   */\n      dup2\n        /* \"#utility.yul\":7071:7093   */\n      lt\n        /* \"#utility.yul\":7050:7068   */\n      0xffffffffffffffff\n        /* \"#utility.yul\":7038:7048   */\n      dup3\n        /* \"#utility.yul\":7035:7069   */\n      gt\n        /* \"#utility.yul\":7032:7094   */\n      or\n        /* \"#utility.yul\":7029:7117   */\n      iszero\n      tag_218\n      jumpi\n        /* \"#utility.yul\":7097:7115   */\n      tag_219\n      tag_116\n      jump\t// in\n    tag_219:\n        /* \"#utility.yul\":7029:7117   */\n    tag_218:\n        /* \"#utility.yul\":7137:7147   */\n      dup1\n        /* \"#utility.yul\":7133:7135   */\n      0x40\n        /* \"#utility.yul\":7126:7148   */\n      mstore\n        /* \"#utility.yul\":6916:7154   */\n      pop\n        /* \"#utility.yul\":6873:7154   */\n      pop\n      pop\n      jump\t// out\n        /* \"#utility.yul\":7160:7289   */\n    tag_118:\n        /* \"#utility.yul\":7194:7200   */\n      0x00\n        /* \"#utility.yul\":7221:7241   */\n      tag_221\n      tag_89\n      jump\t// in\n    tag_221:\n        /* \"#utility.yul\":7211:7241   */\n      swap1\n      pop\n        /* \"#utility.yul\":7250:7283   */\n      tag_222\n        /* \"#utility.yul\":7278:7282   */\n      dup3\n        /* \"#utility.yul\":7270:7276   */\n      dup3\n        /* \"#utility.yul\":7250:7283   */\n      tag_117\n      jump\t// in\n    tag_222:\n        /* \"#utility.yul\":7160:7289   */\n      swap2\n      swap1\n      pop\n      jump\t// out\n        /* \"#utility.yul\":7295:7606   */\n    tag_119:\n        /* \"#utility.yul\":7372:7376   */\n      0x00\n        /* \"#utility.yul\":7462:7480   */\n      0xffffffffffffffff\n        /* \"#utility.yul\":7454:7460   */\n      dup3\n        /* \"#utility.yul\":7451:7481   */\n      gt\n        /* \"#utility.yul\":7448:7504   */\n      iszero\n      tag_224\n      jumpi\n        /* \"#utility.yul\":7484:7502   */\n      tag_225\n      tag_116\n      jump\t// in\n    tag_225:\n        /* \"#utility.yul\":7448:7504   */\n    tag_224:\n        /* \"#utility.yul\":7534:7538   */\n      0x20\n        /* \"#utility.yul\":7526:7532   */\n      dup3\n        /* \"#utility.yul\":7522:7539   */\n      mul\n        /* \"#utility.yul\":7514:7539   */\n      swap1\n      pop\n        /* \"#utility.yul\":7594:7598   */\n      0x20\n        /* \"#utility.yul\":7588:7592   */\n      dup2\n        /* \"#utility.yul\":7584:7599   */\n      add\n        /* \"#utility.yul\":7576:7599   */\n      swap1\n      pop\n        /* \"#utility.yul\":7295:7606   */\n      swap2\n      swap1\n      pop\n      jump\t// out\n        /* \"#utility.yul\":7612:7729   */\n    tag_120:\n        /* \"#utility.yul\":7721:7722   */\n      0x00\n        /* \"#utility.yul\":7718:7719   */\n      dup1\n        /* \"#utility.yul\":7711:7723   */\n      revert\n        /* \"#utility.yul\":7752:8462   */\n    tag_121:\n        /* \"#utility.yul\":7848:7853   */\n      0x00\n        /* \"#utility.yul\":7873:7954   */\n      tag_228\n        /* \"#utility.yul\":7889:7953   */\n      tag_229\n        /* \"#utility.yul\":7946:7952   */\n      dup5\n        /* \"#utility.yul\":7889:7953   */\n      tag_119\n      jump\t// in\n    tag_229:\n        /* \"#utility.yul\":7873:7954   */\n      tag_118\n      jump\t// in\n    tag_228:\n        /* \"#utility.yul\":7864:7954   */\n      swap1\n      pop\n        /* \"#utility.yul\":7974:7979   */\n      dup1\n        /* \"#utility.yul\":8003:8009   */\n      dup4\n        /* \"#utility.yul\":7996:8001   */\n      dup3\n        /* \"#utility.yul\":7989:8010   */\n      mstore\n        /* \"#utility.yul\":8037:8041   */\n      0x20\n        /* \"#utility.yul\":8030:8035   */\n      dup3\n        /* \"#utility.yul\":8026:8042   */\n      add\n        /* \"#utility.yul\":8019:8042   */\n      swap1\n      pop\n        /* \"#utility.yul\":8090:8094   */\n      0x20\n        /* \"#utility.yul\":8082:8088   */\n      dup5\n        /* \"#utility.yul\":8078:8095   */\n      mul\n        /* \"#utility.yul\":8070:8076   */\n      dup4\n        /* \"#utility.yul\":8066:8096   */\n      add\n        /* \"#utility.yul\":8119:8122   */\n      dup6\n        /* \"#utility.yul\":8111:8117   */\n      dup2\n        /* \"#utility.yul\":8108:8123   */\n      gt\n        /* \"#utility.yul\":8105:8227   */\n      iszero\n      tag_230\n      jumpi\n        /* \"#utility.yul\":8138:8217   */\n      tag_231\n      tag_120\n      jump\t// in\n    tag_231:\n        /* \"#utility.yul\":8105:8227   */\n    tag_230:\n        /* \"#utility.yul\":8253:8259   */\n      dup4\n        /* \"#utility.yul\":8236:8456   */\n    tag_232:\n        /* \"#utility.yul\":8270:8276   */\n      dup2\n        /* \"#utility.yul\":8265:8268   */\n      dup2\n        /* \"#utility.yul\":8262:8277   */\n      lt\n        /* \"#utility.yul\":8236:8456   */\n      iszero\n      tag_234\n      jumpi\n        /* \"#utility.yul\":8345:8348   */\n      dup1\n        /* \"#utility.yul\":8374:8411   */\n      tag_235\n        /* \"#utility.yul\":8407:8410   */\n      dup9\n        /* \"#utility.yul\":8395:8405   */\n      dup3\n        /* \"#utility.yul\":8374:8411   */\n      tag_95\n      jump\t// in\n    tag_235:\n        /* \"#utility.yul\":8369:8372   */\n      dup5\n        /* \"#utility.yul\":8362:8412   */\n      mstore\n        /* \"#utility.yul\":8441:8445   */\n      0x20\n        /* \"#utility.yul\":8436:8439   */\n      dup5\n        /* \"#utility.yul\":8432:8446   */\n      add\n        /* \"#utility.yul\":8425:8446   */\n      swap4\n      pop\n        /* \"#utility.yul\":8312:8456   */\n      pop\n        /* \"#utility.yul\":8296:8300   */\n      0x20\n        /* \"#utility.yul\":8291:8294   */\n      dup2\n        /* \"#utility.yul\":8287:8301   */\n      add\n        /* \"#utility.yul\":8280:8301   */\n      swap1\n      pop\n        /* \"#utility.yul\":8236:8456   */\n      jump(tag_232)\n    tag_234:\n        /* \"#utility.yul\":8240:8261   */\n      pop\n        /* \"#utility.yul\":7854:8462   */\n      pop\n      pop\n        /* \"#utility.yul\":7752:8462   */\n      swap4\n      swap3\n      pop\n      pop\n      pop\n      jump\t// out\n        /* \"#utility.yul\":8485:8855   */\n    tag_122:\n        /* \"#utility.yul\":8556:8561   */\n      0x00\n        /* \"#utility.yul\":8605:8608   */\n      dup3\n        /* \"#utility.yul\":8598:8602   */\n      0x1f\n        /* \"#utility.yul\":8590:8596   */\n      dup4\n        /* \"#utility.yul\":8586:8603   */\n      add\n        /* \"#utility.yul\":8582:8609   */\n      slt\n        /* \"#utility.yul\":8572:8694   */\n      tag_237\n      jumpi\n        /* \"#utility.yul\":8613:8692   */\n      tag_238\n      tag_115\n      jump\t// in\n    tag_238:\n        /* \"#utility.yul\":8572:8694   */\n    tag_237:\n        /* \"#utility.yul\":8730:8736   */\n      dup2\n        /* \"#utility.yul\":8717:8737   */\n      calldataload\n        /* \"#utility.yul\":8755:8849   */\n      tag_239\n        /* \"#utility.yul\":8845:8848   */\n      dup5\n        /* \"#utility.yul\":8837:8843   */\n      dup3\n        /* \"#utility.yul\":8830:8834   */\n      0x20\n        /* \"#utility.yul\":8822:8828   */\n      dup7\n        /* \"#utility.yul\":8818:8835   */\n      add\n        /* \"#utility.yul\":8755:8849   */\n      tag_121\n      jump\t// in\n    tag_239:\n        /* \"#utility.yul\":8746:8849   */\n      swap2\n      pop\n        /* \"#utility.yul\":8562:8855   */\n      pop\n        /* \"#utility.yul\":8485:8855   */\n      swap3\n      swap2\n      pop\n      pop\n      jump\t// out\n        /* \"#utility.yul\":8861:8978   */\n    tag_123:\n        /* \"#utility.yul\":8970:8971   */\n      0x00\n        /* \"#utility.yul\":8967:8968   */\n      dup1\n        /* \"#utility.yul\":8960:8972   */\n      revert\n        /* \"#utility.yul\":8984:9292   */\n    tag_124:\n        /* \"#utility.yul\":9046:9050   */\n      0x00\n        /* \"#utility.yul\":9136:9154   */\n      0xffffffffffffffff\n        /* \"#utility.yul\":9128:9134   */\n      dup3\n        /* \"#utility.yul\":9125:9155   */\n      gt\n        /* \"#utility.yul\":9122:9178   */\n      iszero\n      tag_242\n      jumpi\n        /* \"#utility.yul\":9158:9176   */\n      tag_243\n      tag_116\n      jump\t// in\n    tag_243:\n        /* \"#utility.yul\":9122:9178   */\n    tag_242:\n        /* \"#utility.yul\":9196:9225   */\n      tag_244\n        /* \"#utility.yul\":9218:9224   */\n      dup3\n        /* \"#utility.yul\":9196:9225   */\n      tag_105\n      jump\t// in\n    tag_244:\n        /* \"#utility.yul\":9188:9225   */\n      swap1\n      pop\n        /* \"#utility.yul\":9280:9284   */\n      0x20\n        /* \"#utility.yul\":9274:9278   */\n      dup2\n        /* \"#utility.yul\":9270:9285   */\n      add\n        /* \"#utility.yul\":9262:9285   */\n      swap1\n      pop\n        /* \"#utility.yul\":8984:9292   */\n      swap2\n      swap1\n      pop\n      jump\t// out\n        /* \"#utility.yul\":9298:9446   */\n    tag_125:\n        /* \"#utility.yul\":9396:9402   */\n      dup3\n        /* \"#utility.yul\":9391:9394   */\n      dup2\n        /* \"#utility.yul\":9386:9389   */\n      dup4\n        /* \"#utility.yul\":9373:9403   */\n      calldatacopy\n        /* \"#utility.yul\":9437:9438   */\n      0x00\n        /* \"#utility.yul\":9428:9434   */\n      dup4\n        /* \"#utility.yul\":9423:9426   */\n      dup4\n        /* \"#utility.yul\":9419:9435   */\n      add\n        /* \"#utility.yul\":9412:9439   */\n      mstore\n        /* \"#utility.yul\":9298:9446   */\n      pop\n      pop\n      pop\n      jump\t// out\n        /* \"#utility.yul\":9452:9877   */\n    tag_126:\n        /* \"#utility.yul\":9530:9535   */\n      0x00\n        /* \"#utility.yul\":9555:9621   */\n      tag_247\n        /* \"#utility.yul\":9571:9620   */\n      tag_248\n        /* \"#utility.yul\":9613:9619   */\n      dup5\n        /* \"#utility.yul\":9571:9620   */\n      tag_124\n      jump\t// in\n    tag_248:\n        /* \"#utility.yul\":9555:9621   */\n      tag_118\n      jump\t// in\n    tag_247:\n        /* \"#utility.yul\":9546:9621   */\n      swap1\n      pop\n        /* \"#utility.yul\":9644:9650   */\n      dup3\n        /* \"#utility.yul\":9637:9642   */\n      dup2\n        /* \"#utility.yul\":9630:9651   */\n      mstore\n        /* \"#utility.yul\":9682:9686   */\n      0x20\n        /* \"#utility.yul\":9675:9680   */\n      dup2\n        /* \"#utility.yul\":9671:9687   */\n      add\n        /* \"#utility.yul\":9720:9723   */\n      dup5\n        /* \"#utility.yul\":9711:9717   */\n      dup5\n        /* \"#utility.yul\":9706:9709   */\n      dup5\n        /* \"#utility.yul\":9702:9718   */\n      add\n        /* \"#utility.yul\":9699:9724   */\n      gt\n        /* \"#utility.yul\":9696:9808   */\n      iszero\n      tag_249\n      jumpi\n        /* \"#utility.yul\":9727:9806   */\n      tag_250\n      tag_123\n      jump\t// in\n    tag_250:\n        /* \"#utility.yul\":9696:9808   */\n    tag_249:\n        /* \"#utility.yul\":9817:9871   */\n      tag_251\n        /* \"#utility.yul\":9864:9870   */\n      dup5\n        /* \"#utility.yul\":9859:9862   */\n      dup3\n        /* \"#utility.yul\":9854:9857   */\n      dup6\n        /* \"#utility.yul\":9817:9871   */\n      tag_125\n      jump\t// in\n    tag_251:\n        /* \"#utility.yul\":9536:9877   */\n      pop\n        /* \"#utility.yul\":9452:9877   */\n      swap4\n      swap3\n      pop\n      pop\n      pop\n      jump\t// out\n        /* \"#utility.yul\":9897:10237   */\n    tag_127:\n        /* \"#utility.yul\":9953:9958   */\n      0x00\n        /* \"#utility.yul\":10002:10005   */\n      dup3\n        /* \"#utility.yul\":9995:9999   */\n      0x1f\n        /* \"#utility.yul\":9987:9993   */\n      dup4\n        /* \"#utility.yul\":9983:10000   */\n      add\n        /* \"#utility.yul\":9979:10006   */\n      slt\n        /* \"#utility.yul\":9969:10091   */\n      tag_253\n      jumpi\n        /* \"#utility.yul\":10010:10089   */\n      tag_254\n      tag_115\n      jump\t// in\n    tag_254:\n        /* \"#utility.yul\":9969:10091   */\n    tag_253:\n        /* \"#utility.yul\":10127:10133   */\n      dup2\n        /* \"#utility.yul\":10114:10134   */\n      calldataload\n        /* \"#utility.yul\":10152:10231   */\n      tag_255\n        /* \"#utility.yul\":10227:10230   */\n      dup5\n        /* \"#utility.yul\":10219:10225   */\n      dup3\n        /* \"#utility.yul\":10212:10216   */\n      0x20\n        /* \"#utility.yul\":10204:10210   */\n      dup7\n        /* \"#utility.yul\":10200:10217   */\n      add\n        /* \"#utility.yul\":10152:10231   */\n      tag_126\n      jump\t// in\n    tag_255:\n        /* \"#utility.yul\":10143:10231   */\n      swap2\n      pop\n        /* \"#utility.yul\":9959:10237   */\n      pop\n        /* \"#utility.yul\":9897:10237   */\n      swap3\n      swap2\n      pop\n      pop\n      jump\t// out\n        /* \"#utility.yul\":10243:11544   */\n    tag_25:\n        /* \"#utility.yul\":10373:10379   */\n      0x00\n        /* \"#utility.yul\":10381:10387   */\n      dup1\n        /* \"#utility.yul\":10389:10395   */\n      0x00\n        /* \"#utility.yul\":10397:10403   */\n      dup1\n        /* \"#utility.yul\":10405:10411   */\n      0x00\n        /* \"#utility.yul\":10454:10457   */\n      0xa0\n        /* \"#utility.yul\":10442:10451   */\n      dup7\n        /* \"#utility.yul\":10433:10440   */\n      dup9\n        /* \"#utility.yul\":10429:10452   */\n      sub\n        /* \"#utility.yul\":10425:10458   */\n      slt\n        /* \"#utility.yul\":10422:10542   */\n      iszero\n      tag_257\n      jumpi\n        /* \"#utility.yul\":10461:10540   */\n      tag_258\n      tag_90\n      jump\t// in\n    tag_258:\n        /* \"#utility.yul\":10422:10542   */\n    tag_257:\n        /* \"#utility.yul\":10581:10582   */\n      0x00\n        /* \"#utility.yul\":10606:10659   */\n      tag_259\n        /* \"#utility.yul\":10651:10658   */\n      dup9\n        /* \"#utility.yul\":10642:10648   */\n      dup3\n        /* \"#utility.yul\":10631:10640   */\n      dup10\n        /* \"#utility.yul\":10627:10649   */\n      add\n        /* \"#utility.yul\":10606:10659   */\n      tag_95\n      jump\t// in\n    tag_259:\n        /* \"#utility.yul\":10596:10659   */\n      swap6\n      pop\n        /* \"#utility.yul\":10552:10669   */\n      pop\n        /* \"#utility.yul\":10708:10710   */\n      0x20\n        /* \"#utility.yul\":10734:10787   */\n      tag_260\n        /* \"#utility.yul\":10779:10786   */\n      dup9\n        /* \"#utility.yul\":10770:10776   */\n      dup3\n        /* \"#utility.yul\":10759:10768   */\n      dup10\n        /* \"#utility.yul\":10755:10777   */\n      add\n        /* \"#utility.yul\":10734:10787   */\n      tag_114\n      jump\t// in\n    tag_260:\n        /* \"#utility.yul\":10724:10787   */\n      swap5\n      pop\n        /* \"#utility.yul\":10679:10797   */\n      pop\n        /* \"#utility.yul\":10836:10838   */\n      0x40\n        /* \"#utility.yul\":10862:10915   */\n      tag_261\n        /* \"#utility.yul\":10907:10914   */\n      dup9\n        /* \"#utility.yul\":10898:10904   */\n      dup3\n        /* \"#utility.yul\":10887:10896   */\n      dup10\n        /* \"#utility.yul\":10883:10905   */\n      add\n        /* \"#utility.yul\":10862:10915   */\n      tag_95\n      jump\t// in\n    tag_261:\n        /* \"#utility.yul\":10852:10915   */\n      swap4\n      pop\n        /* \"#utility.yul\":10807:10925   */\n      pop\n        /* \"#utility.yul\":10992:10994   */\n      0x60\n        /* \"#utility.yul\":10981:10990   */\n      dup7\n        /* \"#utility.yul\":10977:10995   */\n      add\n        /* \"#utility.yul\":10964:10996   */\n      calldataload\n        /* \"#utility.yul\":11023:11041   */\n      0xffffffffffffffff\n        /* \"#utility.yul\":11015:11021   */\n      dup2\n        /* \"#utility.yul\":11012:11042   */\n      gt\n        /* \"#utility.yul\":11009:11126   */\n      iszero\n      tag_262\n      jumpi\n        /* \"#utility.yul\":11045:11124   */\n      tag_263\n      tag_91\n      jump\t// in\n    tag_263:\n        /* \"#utility.yul\":11009:11126   */\n    tag_262:\n        /* \"#utility.yul\":11150:11228   */\n      tag_264\n        /* \"#utility.yul\":11220:11227   */\n      dup9\n        /* \"#utility.yul\":11211:11217   */\n      dup3\n        /* \"#utility.yul\":11200:11209   */\n      dup10\n        /* \"#utility.yul\":11196:11218   */\n      add\n        /* \"#utility.yul\":11150:11228   */\n      tag_122\n      jump\t// in\n    tag_264:\n        /* \"#utility.yul\":11140:11228   */\n      swap3\n      pop\n        /* \"#utility.yul\":10935:11238   */\n      pop\n        /* \"#utility.yul\":11305:11308   */\n      0x80\n        /* \"#utility.yul\":11294:11303   */\n      dup7\n        /* \"#utility.yul\":11290:11309   */\n      add\n        /* \"#utility.yul\":11277:11310   */\n      calldataload\n        /* \"#utility.yul\":11337:11355   */\n      0xffffffffffffffff\n        /* \"#utility.yul\":11329:11335   */\n      dup2\n        /* \"#utility.yul\":11326:11356   */\n      gt\n        /* \"#utility.yul\":11323:11440   */\n      iszero\n      tag_265\n      jumpi\n        /* \"#utility.yul\":11359:11438   */\n      tag_266\n      tag_91\n      jump\t// in\n    tag_266:\n        /* \"#utility.yul\":11323:11440   */\n    tag_265:\n        /* \"#utility.yul\":11464:11527   */\n      tag_267\n        /* \"#utility.yul\":11519:11526   */\n      dup9\n        /* \"#utility.yul\":11510:11516   */\n      dup3\n        /* \"#utility.yul\":11499:11508   */\n      dup10\n        /* \"#utility.yul\":11495:11517   */\n      add\n        /* \"#utility.yul\":11464:11527   */\n      tag_127\n      jump\t// in\n    tag_267:\n        /* \"#utility.yul\":11454:11527   */\n      swap2\n      pop\n        /* \"#utility.yul\":11248:11537   */\n      pop\n        /* \"#utility.yul\":10243:11544   */\n      swap3\n      swap6\n      pop\n      swap3\n      swap6\n      swap1\n      swap4\n      pop\n      jump\t// out\n        /* \"#utility.yul\":11550:11730   */\n    tag_128:\n        /* \"#utility.yul\":11598:11675   */\n      0x4e487b7100000000000000000000000000000000000000000000000000000000\n        /* \"#utility.yul\":11595:11596   */\n      0x00\n        /* \"#utility.yul\":11588:11676   */\n      mstore\n        /* \"#utility.yul\":11695:11699   */\n      0x22\n        /* \"#utility.yul\":11692:11693   */\n      0x04\n        /* \"#utility.yul\":11685:11700   */\n      mstore\n        /* \"#utility.yul\":11719:11723   */\n      0x24\n        /* \"#utility.yul\":11716:11717   */\n      0x00\n        /* \"#utility.yul\":11709:11724   */\n      revert\n        /* \"#utility.yul\":11736:12056   */\n    tag_35:\n        /* \"#utility.yul\":11780:11786   */\n      0x00\n        /* \"#utility.yul\":11817:11818   */\n      0x02\n        /* \"#utility.yul\":11811:11815   */\n      dup3\n        /* \"#utility.yul\":11807:11819   */\n      div\n        /* \"#utility.yul\":11797:11819   */\n      swap1\n      pop\n        /* \"#utility.yul\":11864:11865   */\n      0x01\n        /* \"#utility.yul\":11858:11862   */\n      dup3\n        /* \"#utility.yul\":11854:11866   */\n      and\n        /* \"#utility.yul\":11885:11903   */\n      dup1\n        /* \"#utility.yul\":11875:11956   */\n      tag_270\n      jumpi\n        /* \"#utility.yul\":11941:11945   */\n      0x7f\n        /* \"#utility.yul\":11933:11939   */\n      dup3\n        /* \"#utility.yul\":11929:11946   */\n      and\n        /* \"#utility.yul\":11919:11946   */\n      swap2\n      pop\n        /* \"#utility.yul\":11875:11956   */\n    tag_270:\n        /* \"#utility.yul\":12003:12005   */\n      0x20\n        /* \"#utility.yul\":11995:12001   */\n      dup3\n        /* \"#utility.yul\":11992:12006   */\n      lt\n        /* \"#utility.yul\":11972:11990   */\n      dup2\n        /* \"#utility.yul\":11969:12007   */\n      sub\n        /* \"#utility.yul\":11966:12050   */\n      tag_271\n      jumpi\n        /* \"#utility.yul\":12022:12040   */\n      tag_272\n      tag_128\n      jump\t// in\n    tag_272:\n        /* \"#utility.yul\":11966:12050   */\n    tag_271:\n        /* \"#utility.yul\":11787:12056   */\n      pop\n        /* \"#utility.yul\":11736:12056   */\n      swap2\n      swap1\n      pop\n      jump\t// out\n        /* \"#utility.yul\":12062:12203   */\n    tag_129:\n        /* \"#utility.yul\":12111:12115   */\n      0x00\n        /* \"#utility.yul\":12134:12137   */\n      dup2\n        /* \"#utility.yul\":12126:12137   */\n      swap1\n      pop\n        /* \"#utility.yul\":12157:12160   */\n      dup2\n        /* \"#utility.yul\":12154:12155   */\n      0x00\n        /* \"#utility.yul\":12147:12161   */\n      mstore\n        /* \"#utility.yul\":12191:12195   */\n      0x20\n        /* \"#utility.yul\":12188:12189   */\n      0x00\n        /* \"#utility.yul\":12178:12196   */\n      keccak256\n        /* \"#utility.yul\":12170:12196   */\n      swap1\n      pop\n        /* \"#utility.yul\":12062:12203   */\n      swap2\n      swap1\n      pop\n      jump\t// out\n        /* \"#utility.yul\":12209:12302   */\n    tag_130:\n        /* \"#utility.yul\":12246:12252   */\n      0x00\n        /* \"#utility.yul\":12293:12295   */\n      0x20\n        /* \"#utility.yul\":12288:12290   */\n      0x1f\n        /* \"#utility.yul\":12281:12286   */\n      dup4\n        /* \"#utility.yul\":12277:12291   */\n      add\n        /* \"#utility.yul\":12273:12296   */\n      div\n        /* \"#utility.yul\":12263:12296   */\n      swap1\n      pop\n        /* \"#utility.yul\":12209:12302   */\n      swap2\n      swap1\n      pop\n      jump\t// out\n        /* \"#utility.yul\":12308:12415   */\n    tag_131:\n        /* \"#utility.yul\":12352:12360   */\n      0x00\n        /* \"#utility.yul\":12402:12407   */\n      dup3\n        /* \"#utility.yul\":12396:12400   */\n      dup3\n        /* \"#utility.yul\":12392:12408   */\n      shl\n        /* \"#utility.yul\":12371:12408   */\n      swap1\n      pop\n        /* \"#utility.yul\":12308:12415   */\n      swap3\n      swap2\n      pop\n      pop\n      jump\t// out\n        /* \"#utility.yul\":12421:12814   */\n    tag_132:\n        /* \"#utility.yul\":12490:12496   */\n      0x00\n        /* \"#utility.yul\":12540:12541   */\n      0x08\n        /* \"#utility.yul\":12528:12538   */\n      dup4\n        /* \"#utility.yul\":12524:12542   */\n      mul\n        /* \"#utility.yul\":12563:12660   */\n      tag_277\n        /* \"#utility.yul\":12593:12659   */\n      0xffffffffffffffffffffffffffffffffffffffffffffffffffffffffffffffff\n        /* \"#utility.yul\":12582:12591   */\n      dup3\n        /* \"#utility.yul\":12563:12660   */\n      tag_131\n      jump\t// in\n    tag_277:\n        /* \"#utility.yul\":12681:12720   */\n      tag_278\n        /* \"#utility.yul\":12711:12719   */\n      dup7\n        /* \"#utility.yul\":12700:12709   */\n      dup4\n        /* \"#utility.yul\":12681:12720   */\n      tag_131\n      jump\t// in\n    tag_278:\n        /* \"#utility.yul\":12669:12720   */\n      swap6\n      pop\n        /* \"#utility.yul\":12753:12757   */\n      dup1\n        /* \"#utility.yul\":12749:12758   */\n      not\n        /* \"#utility.yul\":12742:12747   */\n      dup5\n        /* \"#utility.yul\":12738:12759   */\n      and\n        /* \"#utility.yul\":12729:12759   */\n      swap4\n      pop\n        /* \"#utility.yul\":12802:12806   */\n      dup1\n        /* \"#utility.yul\":12792:12800   */\n      dup7\n        /* \"#utility.yul\":12788:12807   */\n      and\n        /* \"#utility.yul\":12781:12786   */\n      dup5\n        /* \"#utility.yul\":12778:12808   */\n      or\n        /* \"#utility.yul\":12768:12808   */\n      swap3\n      pop\n        /* \"#utility.yul\":12497:12814   */\n      pop\n      pop\n        /* \"#utility.yul\":12421:12814   */\n      swap4\n      swap3\n      pop\n      pop\n      pop\n      jump\t// out\n        /* \"#utility.yul\":12820:12880   */\n    tag_133:\n        /* \"#utility.yul\":12848:12851   */\n      0x00\n        /* \"#utility.yul\":12869:12874   */\n      dup2\n        /* \"#utility.yul\":12862:12874   */\n      swap1\n      pop\n        /* \"#utility.yul\":12820:12880   */\n      swap2\n      swap1\n      pop\n      jump\t// out\n        /* \"#utility.yul\":12886:13028   */\n    tag_134:\n        /* \"#utility.yul\":12936:12945   */\n      0x00\n        /* \"#utility.yul\":12969:13022   */\n      tag_281\n        /* \"#utility.yul\":12987:13021   */\n      tag_282\n        /* \"#utility.yul\":12996:13020   */\n      tag_283\n        /* \"#utility.yul\":13014:13019   */\n      dup5\n        /* \"#utility.yul\":12996:13020   */\n      tag_99\n      jump\t// in\n    tag_283:\n        /* \"#utility.yul\":12987:13021   */\n      tag_133\n      jump\t// in\n    tag_282:\n        /* \"#utility.yul\":12969:13022   */\n      tag_99\n      jump\t// in\n    tag_281:\n        /* \"#utility.yul\":12956:13022   */\n      swap1\n      pop\n        /* \"#utility.yul\":12886:13028   */\n      swap2\n      swap1\n      pop\n      jump\t// out\n        /* \"#utility.yul\":13034:13109   */\n    tag_135:\n        /* \"#utility.yul\":13077:13080   */\n      0x00\n        /* \"#utility.yul\":13098:13103   */\n      dup2\n        /* \"#utility.yul\":13091:13103   */\n      swap1\n      pop\n        /* \"#utility.yul\":13034:13109   */\n      swap2\n      swap1\n      pop\n      jump\t// out\n        /* \"#utility.yul\":13115:13384   */\n    tag_136:\n        /* \"#utility.yul\":13225:13264   */\n      tag_286\n        /* \"#utility.yul\":13256:13263   */\n      dup4\n        /* \"#utility.yul\":13225:13264   */\n      tag_134\n      jump\t// in\n    tag_286:\n        /* \"#utility.yul\":13286:13377   */\n      tag_287\n        /* \"#utility.yul\":13335:13376   */\n      tag_288\n        /* \"#utility.yul\":13359:13375   */\n      dup3\n        /* \"#utility.yul\":13335:13376   */\n      tag_135\n      jump\t// in\n    tag_288:\n        /* \"#utility.yul\":13327:13333   */\n      dup5\n        /* \"#utility.yul\":13320:13324   */\n      dup5\n        /* \"#utility.yul\":13314:13325   */\n      sload\n        /* \"#utility.yul\":13286:13377   */\n      tag_132\n      jump\t// in\n    tag_287:\n        /* \"#utility.yul\":13280:13284   */\n      dup3\n        /* \"#utility.yul\":13273:13378   */\n      sstore\n        /* \"#utility.yul\":13191:13384   */\n      pop\n        /* \"#utility.yul\":13115:13384   */\n      pop\n      pop\n      pop\n      jump\t// out\n        /* \"#utility.yul\":13390:13463   */\n    tag_137:\n        /* \"#utility.yul\":13435:13438   */\n      0x00\n        /* \"#utility.yul\":13390:13463   */\n      swap1\n      jump\t// out\n        /* \"#utility.yul\":13469:13658   */\n    tag_138:\n        /* \"#utility.yul\":13546:13578   */\n      tag_291\n      tag_137\n      jump\t// in\n    tag_291:\n        /* \"#utility.yul\":13587:13652   */\n      tag_292\n        /* \"#utility.yul\":13645:13651   */\n      dup2\n        /* \"#utility.yul\":13637:13643   */\n      dup5\n        /* \"#utility.yul\":13631:13635   */\n      dup5\n        /* \"#utility.yul\":13587:13652   */\n      tag_136\n      jump\t// in\n    tag_292:\n        /* \"#utility.yul\":13522:13658   */\n      pop\n        /* \"#utility.yul\":13469:13658   */\n      pop\n      pop\n      jump\t// out\n        /* \"#utility.yul\":13664:13850   */\n    tag_139:\n        /* \"#utility.yul\":13724:13844   */\n    tag_294:\n        /* \"#utility.yul\":13741:13744   */\n      dup2\n        /* \"#utility.yul\":13734:13739   */\n      dup2\n        /* \"#utility.yul\":13731:13745   */\n      lt\n        /* \"#utility.yul\":13724:13844   */\n      iszero\n      tag_296\n      jumpi\n        /* \"#utility.yul\":13795:13834   */\n      tag_297\n        /* \"#utility.yul\":13832:13833   */\n      0x00\n        /* \"#utility.yul\":13825:13830   */\n      dup3\n        /* \"#utility.yul\":13795:13834   */\n      tag_138\n      jump\t// in\n    tag_297:\n        /* \"#utility.yul\":13768:13769   */\n      0x01\n        /* \"#utility.yul\":13761:13766   */\n      dup2\n        /* \"#utility.yul\":13757:13770   */\n      add\n        /* \"#utility.yul\":13748:13770   */\n      swap1\n      pop\n        /* \"#utility.yul\":13724:13844   */\n      jump(tag_294)\n    tag_296:\n        /* \"#utility.yul\":13664:13850   */\n      pop\n      pop\n      jump\t// out\n        /* \"#utility.yul\":13856:14399   */\n    tag_140:\n        /* \"#utility.yul\":13957:13959   */\n      0x1f\n        /* \"#utility.yul\":13952:13955   */\n      dup3\n        /* \"#utility.yul\":13949:13960   */\n      gt\n        /* \"#utility.yul\":13946:14392   */\n      iszero\n      tag_299\n      jumpi\n        /* \"#utility.yul\":13991:14029   */\n      tag_300\n        /* \"#utility.yul\":14023:14028   */\n      dup2\n        /* \"#utility.yul\":13991:14029   */\n      tag_129\n      jump\t// in\n    tag_300:\n        /* \"#utility.yul\":14075:14104   */\n      tag_301\n        /* \"#utility.yul\":14093:14103   */\n      dup5\n        /* \"#utility.yul\":14075:14104   */\n      tag_130\n      jump\t// in\n    tag_301:\n        /* \"#utility.yul\":14065:14073   */\n      dup2\n        /* \"#utility.yul\":14061:14105   */\n      add\n        /* \"#utility.yul\":14258:14260   */\n      0x20\n        /* \"#utility.yul\":14246:14256   */\n      dup6\n        /* \"#utility.yul\":14243:14261   */\n      lt\n        /* \"#utility.yul\":14240:14289   */\n      iszero\n      tag_302\n      jumpi\n        /* \"#utility.yul\":14279:14287   */\n      dup2\n        /* \"#utility.yul\":14264:14287   */\n      swap1\n      pop\n        /* \"#utility.yul\":14240:14289   */\n    tag_302:\n        /* \"#utility.yul\":14302:14382   */\n      tag_303\n        /* \"#utility.yul\":14358:14380   */\n      tag_304\n        /* \"#utility.yul\":14376:14379   */\n      dup6\n        /* \"#utility.yul\":14358:14380   */\n      tag_130\n      jump\t// in\n    tag_304:\n        /* \"#utility.yul\":14348:14356   */\n      dup4\n        /* \"#utility.yul\":14344:14381   */\n      add\n        /* \"#utility.yul\":14331:14342   */\n      dup3\n        /* \"#utility.yul\":14302:14382   */\n      tag_139\n      jump\t// in\n    tag_303:\n        /* \"#utility.yul\":13961:14392   */\n      pop\n      pop\n        /* \"#utility.yul\":13946:14392   */\n    tag_299:\n        /* \"#utility.yul\":13856:14399   */\n      pop\n      pop\n      pop\n      jump\t// out\n        /* \"#utility.yul\":14405:14522   */\n    tag_141:\n        /* \"#utility.yul\":14459:14467   */\n      0x00\n        /* \"#utility.yul\":14509:14514   */\n      dup3\n        /* \"#utility.yul\":14503:14507   */\n      dup3\n        /* \"#utility.yul\":14499:14515   */\n      shr\n        /* \"#utility.yul\":14478:14515   */\n      swap1\n      pop\n        /* \"#utility.yul\":14405:14522   */\n      swap3\n      swap2\n      pop\n      pop\n      jump\t// out\n        /* \"#utility.yul\":14528:14697   */\n    tag_142:\n        /* \"#utility.yul\":14572:14578   */\n      0x00\n        /* \"#utility.yul\":14605:14656   */\n      tag_307\n        /* \"#utility.yul\":14653:14654   */\n      0x00\n        /* \"#utility.yul\":14649:14655   */\n      not\n        /* \"#utility.yul\":14641:14646   */\n      dup5\n        /* \"#utility.yul\":14638:14639   */\n      0x08\n        /* \"#utility.yul\":14634:14647   */\n      mul\n        /* \"#utility.yul\":14605:14656   */\n      tag_141\n      jump\t// in\n    tag_307:\n        /* \"#utility.yul\":14601:14657   */\n      not\n        /* \"#utility.yul\":14686:14690   */\n      dup1\n        /* \"#utility.yul\":14680:14684   */\n      dup4\n        /* \"#utility.yul\":14676:14691   */\n      and\n        /* \"#utility.yul\":14666:14691   */\n      swap2\n      pop\n        /* \"#utility.yul\":14579:14697   */\n      pop\n        /* \"#utility.yul\":14528:14697   */\n      swap3\n      swap2\n      pop\n      pop\n      jump\t// out\n        /* \"#utility.yul\":14702:14997   */\n    tag_143:\n        /* \"#utility.yul\":14778:14782   */\n      0x00\n        /* \"#utility.yul\":14924:14953   */\n      tag_309\n        /* \"#utility.yul\":14949:14952   */\n      dup4\n        /* \"#utility.yul\":14943:14947   */\n      dup4\n        /* \"#utility.yul\":14924:14953   */\n      tag_142\n      jump\t// in\n    tag_309:\n        /* \"#utility.yul\":14916:14953   */\n      swap2\n      pop\n        /* \"#utility.yul\":14986:14989   */\n      dup3\n        /* \"#utility.yul\":14983:14984   */\n      0x02\n        /* \"#utility.yul\":14979:14990   */\n      mul\n        /* \"#utility.yul\":14973:14977   */\n      dup3\n        /* \"#utility.yul\":14970:14991   */\n      or\n        /* \"#utility.yul\":14962:14991   */\n      swap1\n      pop\n        /* \"#utility.yul\":14702:14997   */\n      swap3\n      swap2\n      pop\n      pop\n      jump\t// out\n        /* \"#utility.yul\":15002:16397   */\n    tag_56:\n        /* \"#utility.yul\":15119:15156   */\n      tag_311\n        /* \"#utility.yul\":15152:15155   */\n      dup3\n        /* \"#utility.yul\":15119:15156   */\n      tag_102\n      jump\t// in\n    tag_311:\n        /* \"#utility.yul\":15221:15239   */\n      0xffffffffffffffff\n        /* \"#utility.yul\":15213:15219   */\n      dup2\n        /* \"#utility.yul\":15210:15240   */\n      gt\n        /* \"#utility.yul\":15207:15263   */\n      iszero\n      tag_312\n      jumpi\n        /* \"#utility.yul\":15243:15261   */\n      tag_313\n      tag_116\n      jump\t// in\n    tag_313:\n        /* \"#utility.yul\":15207:15263   */\n    tag_312:\n        /* \"#utility.yul\":15287:15325   */\n      tag_314\n        /* \"#utility.yul\":15319:15323   */\n      dup3\n        /* \"#utility.yul\":15313:15324   */\n      sload\n        /* \"#utility.yul\":15287:15325   */\n      tag_35\n      jump\t// in\n    tag_314:\n        /* \"#utility.yul\":15372:15439   */\n      tag_315\n        /* \"#utility.yul\":15432:15438   */\n      dup3\n        /* \"#utility.yul\":15424:15430   */\n      dup3\n        /* \"#utility.yul\":15418:15422   */\n      dup6\n        /* \"#utility.yul\":15372:15439   */\n      tag_140\n      jump\t// in\n    tag_315:\n        /* \"#utility.yul\":15466:15467   */\n      0x00\n        /* \"#utility.yul\":15490:15494   */\n      0x20\n        /* \"#utility.yul\":15477:15494   */\n      swap1\n      pop\n        /* \"#utility.yul\":15522:15524   */\n      0x1f\n        /* \"#utility.yul\":15514:15520   */\n      dup4\n        /* \"#utility.yul\":15511:15525   */\n      gt\n        /* \"#utility.yul\":15539:15540   */\n      0x01\n        /* \"#utility.yul\":15534:16152   */\n      dup2\n      eq\n      tag_317\n      jumpi\n        /* \"#utility.yul\":16196:16197   */\n      0x00\n        /* \"#utility.yul\":16213:16219   */\n      dup5\n        /* \"#utility.yul\":16210:16287   */\n      iszero\n      tag_318\n      jumpi\n        /* \"#utility.yul\":16262:16271   */\n      dup3\n        /* \"#utility.yul\":16257:16260   */\n      dup8\n        /* \"#utility.yul\":16253:16272   */\n      add\n        /* \"#utility.yul\":16247:16273   */\n      mload\n        /* \"#utility.yul\":16238:16273   */\n      swap1\n      pop\n        /* \"#utility.yul\":16210:16287   */\n    tag_318:\n        /* \"#utility.yul\":16313:16380   */\n      tag_319\n        /* \"#utility.yul\":16373:16379   */\n      dup6\n        /* \"#utility.yul\":16366:16371   */\n      dup3\n        /* \"#utility.yul\":16313:16380   */\n      tag_143\n      jump\t// in\n    tag_319:\n        /* \"#utility.yul\":16307:16311   */\n      dup7\n        /* \"#utility.yul\":16300:16381   */\n      sstore\n        /* \"#utility.yul\":16169:16391   */\n      pop\n        /* \"#utility.yul\":15504:16391   */\n      jump(tag_316)\n        /* \"#utility.yul\":15534:16152   */\n    tag_317:\n        /* \"#utility.yul\":15586:15590   */\n      0x1f\n        /* \"#utility.yul\":15582:15591   */\n      not\n        /* \"#utility.yul\":15574:15580   */\n      dup5\n        /* \"#utility.yul\":15570:15592   */\n      and\n        /* \"#utility.yul\":15620:15657   */\n      tag_320\n        /* \"#utility.yul\":15652:15656   */\n      dup7\n        /* \"#utility.yul\":15620:15657   */\n      tag_129\n      jump\t// in\n    tag_320:\n        /* \"#utility.yul\":15679:15680   */\n      0x00\n        /* \"#utility.yul\":15693:15901   */\n    tag_321:\n        /* \"#utility.yul\":15707:15714   */\n      dup3\n        /* \"#utility.yul\":15704:15705   */\n      dup2\n        /* \"#utility.yul\":15701:15715   */\n      lt\n        /* \"#utility.yul\":15693:15901   */\n      iszero\n      tag_323\n      jumpi\n        /* \"#utility.yul\":15786:15795   */\n      dup5\n        /* \"#utility.yul\":15781:15784   */\n      dup10\n        /* \"#utility.yul\":15777:15796   */\n      add\n        /* \"#utility.yul\":15771:15797   */\n      mload\n        /* \"#utility.yul\":15763:15769   */\n      dup3\n        /* \"#utility.yul\":15756:15798   */\n      sstore\n        /* \"#utility.yul\":15837:15838   */\n      0x01\n        /* \"#utility.yul\":15829:15835   */\n      dup3\n        /* \"#utility.yul\":15825:15839   */\n      add\n        /* \"#utility.yul\":15815:15839   */\n      swap2\n      pop\n        /* \"#utility.yul\":15884:15886   */\n      0x20\n        /* \"#utility.yul\":15873:15882   */\n      dup6\n        /* \"#utility.yul\":15869:15887   */\n      add\n        /* \"#utility.yul\":15856:15887   */\n      swap5\n      pop\n        /* \"#utility.yul\":15730:15734   */\n      0x20\n        /* \"#utility.yul\":15727:15728   */\n      dup2\n        /* \"#utility.yul\":15723:15735   */\n      add\n        /* \"#utility.yul\":15718:15735   */\n      swap1\n      pop\n        /* \"#utility.yul\":15693:15901   */\n      jump(tag_321)\n    tag_323:\n        /* \"#utility.yul\":15929:15935   */\n      dup7\n        /* \"#utility.yul\":15920:15927   */\n      dup4\n        /* \"#utility.yul\":15917:15936   */\n      lt\n        /* \"#utility.yul\":15914:16093   */\n      iszero\n      tag_324\n      jumpi\n        /* \"#utility.yul\":15987:15996   */\n      dup5\n        /* \"#utility.yul\":15982:15985   */\n      dup10\n        /* \"#utility.yul\":15978:15997   */\n      add\n        /* \"#utility.yul\":15972:15998   */\n      mload\n        /* \"#utility.yul\":16030:16078   */\n      tag_325\n        /* \"#utility.yul\":16072:16076   */\n      0x1f\n        /* \"#utility.yul\":16064:16070   */\n      dup10\n        /* \"#utility.yul\":16060:16077   */\n      and\n        /* \"#utility.yul\":16049:16058   */\n      dup3\n        /* \"#utility.yul\":16030:16078   */\n      tag_142\n      jump\t// in\n    tag_325:\n        /* \"#utility.yul\":16022:16028   */\n      dup4\n        /* \"#utility.yul\":16015:16079   */\n      sstore\n        /* \"#utility.yul\":15937:16093   */\n      pop\n        /* \"#utility.yul\":15914:16093   */\n    tag_324:\n        /* \"#utility.yul\":16139:16140   */\n      0x01\n        /* \"#utility.yul\":16135:16136   */\n      0x02\n        /* \"#utility.yul\":16127:16133   */\n      dup9\n        /* \"#utility.yul\":16123:16137   */\n      mul\n        /* \"#utility.yul\":16119:16141   */\n      add\n        /* \"#utility.yul\":16113:16117   */\n      dup9\n        /* \"#utility.yul\":16106:16142   */\n      sstore\n        /* \"#utility.yul\":15541:16152   */\n      pop\n      pop\n      pop\n        /* \"#utility.yul\":15504:16391   */\n    tag_316:\n      pop\n        /* \"#utility.yul\":15094:16397   */\n      pop\n      pop\n      pop\n        /* \"#utility.yul\":15002:16397   */\n      pop\n      pop\n      jump\t// out\n        /* \"#utility.yul\":16403:16521   */\n    tag_144:\n        /* \"#utility.yul\":16490:16514   */\n      tag_327\n        /* \"#utility.yul\":16508:16513   */\n      dup2\n        /* \"#utility.yul\":16490:16514   */\n      tag_93\n      jump\t// in\n    tag_327:\n        /* \"#utility.yul\":16485:16488   */\n      dup3\n        /* \"#utility.yul\":16478:16515   */\n      mstore\n        /* \"#utility.yul\":16403:16521   */\n      pop\n      pop\n      jump\t// out\n        /* \"#utility.yul\":16527:16645   */\n    tag_145:\n        /* \"#utility.yul\":16614:16638   */\n      tag_329\n        /* \"#utility.yul\":16632:16637   */\n      dup2\n        /* \"#utility.yul\":16614:16638   */\n      tag_99\n      jump\t// in\n    tag_329:\n        /* \"#utility.yul\":16609:16612   */\n      dup3\n        /* \"#utility.yul\":16602:16639   */\n      mstore\n        /* \"#utility.yul\":16527:16645   */\n      pop\n      pop\n      jump\t// out\n        /* \"#utility.yul\":16651:17093   */\n    tag_58:\n        /* \"#utility.yul\":16800:16804   */\n      0x00\n        /* \"#utility.yul\":16838:16840   */\n      0x60\n        /* \"#utility.yul\":16827:16836   */\n      dup3\n        /* \"#utility.yul\":16823:16841   */\n      add\n        /* \"#utility.yul\":16815:16841   */\n      swap1\n      pop\n        /* \"#utility.yul\":16851:16922   */\n      tag_331\n        /* \"#utility.yul\":16919:16920   */\n      0x00\n        /* \"#utility.yul\":16908:16917   */\n      dup4\n        /* \"#utility.yul\":16904:16921   */\n      add\n        /* \"#utility.yul\":16895:16901   */\n      dup7\n        /* \"#utility.yul\":16851:16922   */\n      tag_144\n      jump\t// in\n    tag_331:\n        /* \"#utility.yul\":16932:17004   */\n      tag_332\n        /* \"#utility.yul\":17000:17002   */\n      0x20\n        /* \"#utility.yul\":16989:16998   */\n      dup4\n        /* \"#utility.yul\":16985:17003   */\n      add\n        /* \"#utility.yul\":16976:16982   */\n      dup6\n        /* \"#utility.yul\":16932:17004   */\n      tag_144\n      jump\t// in\n    tag_332:\n        /* \"#utility.yul\":17014:17086   */\n      tag_333\n        /* \"#utility.yul\":17082:17084   */\n      0x40\n        /* \"#utility.yul\":17071:17080   */\n      dup4\n        /* \"#utility.yul\":17067:17085   */\n      add\n        /* \"#utility.yul\":17058:17064   */\n      dup5\n        /* \"#utility.yul\":17014:17086   */\n      tag_145\n      jump\t// in\n    tag_333:\n        /* \"#utility.yul\":16651:17093   */\n      swap5\n      swap4\n      pop\n      pop\n      pop\n      pop\n      jump\t// out\n        /* \"#utility.yul\":17099:17279   */\n    tag_146:\n        /* \"#utility.yul\":17147:17224   */\n      0x4e487b7100000000000000000000000000000000000000000000000000000000\n        /* \"#utility.yul\":17144:17145   */\n      0x00\n        /* \"#utility.yul\":17137:17225   */\n      mstore\n        /* \"#utility.yul\":17244:17248   */\n      0x12\n        /* \"#utility.yul\":17241:17242   */\n      0x04\n        /* \"#utility.yul\":17234:17249   */\n      mstore\n        /* \"#utility.yul\":17268:17272   */\n      0x24\n        /* \"#utility.yul\":17265:17266   */\n      0x00\n        /* \"#utility.yul\":17258:17273   */\n      revert\n        /* \"#utility.yul\":17471:17656   */\n    tag_63:\n        /* \"#utility.yul\":17511:17512   */\n      0x00\n        /* \"#utility.yul\":17528:17548   */\n      tag_337\n        /* \"#utility.yul\":17546:17547   */\n      dup3\n        /* \"#utility.yul\":17528:17548   */\n      tag_99\n      jump\t// in\n    tag_337:\n        /* \"#utility.yul\":17523:17548   */\n      swap2\n      pop\n        /* \"#utility.yul\":17562:17582   */\n      tag_338\n        /* \"#utility.yul\":17580:17581   */\n      dup4\n        /* \"#utility.yul\":17562:17582   */\n      tag_99\n      jump\t// in\n    tag_338:\n        /* \"#utility.yul\":17557:17582   */\n      swap3\n      pop\n        /* \"#utility.yul\":17601:17602   */\n      dup3\n        /* \"#utility.yul\":17591:17626   */\n      tag_339\n      jumpi\n        /* \"#utility.yul\":17606:17624   */\n      tag_340\n      tag_146\n      jump\t// in\n    tag_340:\n        /* \"#utility.yul\":17591:17626   */\n    tag_339:\n        /* \"#utility.yul\":17648:17649   */\n      dup3\n        /* \"#utility.yul\":17645:17646   */\n      dup3\n        /* \"#utility.yul\":17641:17650   */\n      div\n        /* \"#utility.yul\":17636:17650   */\n      swap1\n      pop\n        /* \"#utility.yul\":17471:17656   */\n      swap3\n      swap2\n      pop\n      pop\n      jump\t// out\n        /* \"#utility.yul\":17662:17842   */\n    tag_66:\n        /* \"#utility.yul\":17710:17787   */\n      0x4e487b7100000000000000000000000000000000000000000000000000000000\n        /* \"#utility.yul\":17707:17708   */\n      0x00\n        /* \"#utility.yul\":17700:17788   */\n      mstore\n        /* \"#utility.yul\":17807:17811   */\n      0x32\n        /* \"#utility.yul\":17804:17805   */\n      0x04\n        /* \"#utility.yul\":17797:17812   */\n      mstore\n        /* \"#utility.yul\":17831:17835   */\n      0x24\n        /* \"#utility.yul\":17828:17829   */\n      0x00\n        /* \"#utility.yul\":17821:17836   */\n      revert\n        /* \"#utility.yul\":17848:18017   */\n    tag_148:\n        /* \"#utility.yul\":17932:17943   */\n      0x00\n        /* \"#utility.yul\":17966:17972   */\n      dup3\n        /* \"#utility.yul\":17961:17964   */\n      dup3\n        /* \"#utility.yul\":17954:17973   */\n      mstore\n        /* \"#utility.yul\":18006:18010   */\n      0x20\n        /* \"#utility.yul\":18001:18004   */\n      dup3\n        /* \"#utility.yul\":17997:18011   */\n      add\n        /* \"#utility.yul\":17982:18011   */\n      swap1\n      pop\n        /* \"#utility.yul\":17848:18017   */\n      swap3\n      swap2\n      pop\n      pop\n      jump\t// out\n        /* \"#utility.yul\":18023:18205   */\n    tag_149:\n        /* \"#utility.yul\":18163:18197   */\n      0x6164647265737320697320616c72656164792061207061727469636970616e74\n        /* \"#utility.yul\":18159:18160   */\n      0x00\n        /* \"#utility.yul\":18151:18157   */\n      dup3\n        /* \"#utility.yul\":18147:18161   */\n      add\n        /* \"#utility.yul\":18140:18198   */\n      mstore\n        /* \"#utility.yul\":18023:18205   */\n      pop\n      jump\t// out\n        /* \"#utility.yul\":18211:18577   */\n    tag_150:\n        /* \"#utility.yul\":18353:18356   */\n      0x00\n        /* \"#utility.yul\":18374:18441   */\n      tag_345\n        /* \"#utility.yul\":18438:18440   */\n      0x20\n        /* \"#utility.yul\":18433:18436   */\n      dup4\n        /* \"#utility.yul\":18374:18441   */\n      tag_148\n      jump\t// in\n    tag_345:\n        /* \"#utility.yul\":18367:18441   */\n      swap2\n      pop\n        /* \"#utility.yul\":18450:18543   */\n      tag_346\n        /* \"#utility.yul\":18539:18542   */\n      dup3\n        /* \"#utility.yul\":18450:18543   */\n      tag_149\n      jump\t// in\n    tag_346:\n        /* \"#utility.yul\":18568:18570   */\n      0x20\n        /* \"#utility.yul\":18563:18566   */\n      dup3\n        /* \"#utility.yul\":18559:18571   */\n      add\n        /* \"#utility.yul\":18552:18571   */\n      swap1\n      pop\n        /* \"#utility.yul\":18211:18577   */\n      swap2\n      swap1\n      pop\n      jump\t// out\n        /* \"#utility.yul\":18583:19002   */\n    tag_77:\n        /* \"#utility.yul\":18749:18753   */\n      0x00\n        /* \"#utility.yul\":18787:18789   */\n      0x20\n        /* \"#utility.yul\":18776:18785   */\n      dup3\n        /* \"#utility.yul\":18772:18790   */\n      add\n        /* \"#utility.yul\":18764:18790   */\n      swap1\n      pop\n        /* \"#utility.yul\":18836:18845   */\n      dup2\n        /* \"#utility.yul\":18830:18834   */\n      dup2\n        /* \"#utility.yul\":18826:18846   */\n      sub\n        /* \"#utility.yul\":18822:18823   */\n      0x00\n        /* \"#utility.yul\":18811:18820   */\n      dup4\n        /* \"#utility.yul\":18807:18824   */\n      add\n        /* \"#utility.yul\":18800:18847   */\n      mstore\n        /* \"#utility.yul\":18864:18995   */\n      tag_348\n        /* \"#utility.yul\":18990:18994   */\n      dup2\n        /* \"#utility.yul\":18864:18995   */\n      tag_150\n      jump\t// in\n    tag_348:\n        /* \"#utility.yul\":18856:18995   */\n      swap1\n      pop\n        /* \"#utility.yul\":18583:19002   */\n      swap2\n      swap1\n      pop\n      jump\t// out\n        /* \"#utility.yul\":19008:19188   */\n    tag_151:\n        /* \"#utility.yul\":19148:19180   */\n      0x646562746f72206973206973206e6f742061207061727469636970616e740000\n        /* \"#utility.yul\":19144:19145   */\n      0x00\n        /* \"#utility.yul\":19136:19142   */\n      dup3\n        /* \"#utility.yul\":19132:19146   */\n      add\n        /* \"#utility.yul\":19125:19181   */\n      mstore\n        /* \"#utility.yul\":19008:19188   */\n      pop\n      jump\t// out\n        /* \"#utility.yul\":19194:19560   */\n    tag_152:\n        /* \"#utility.yul\":19336:19339   */\n      0x00\n        /* \"#utility.yul\":19357:19424   */\n      tag_351\n        /* \"#utility.yul\":19421:19423   */\n      0x1e\n        /* \"#utility.yul\":19416:19419   */\n      dup4\n        /* \"#utility.yul\":19357:19424   */\n      tag_148\n      jump\t// in\n    tag_351:\n        /* \"#utility.yul\":19350:19424   */\n      swap2\n      pop\n        /* \"#utility.yul\":19433:19526   */\n      tag_352\n        /* \"#utility.yul\":19522:19525   */\n      dup3\n        /* \"#utility.yul\":19433:19526   */\n      tag_151\n      jump\t// in\n    tag_352:\n        /* \"#utility.yul\":19551:19553   */\n      0x20\n        /* \"#utility.yul\":19546:19549   */\n      dup3\n        /* \"#utility.yul\":19542:19554   */\n      add\n        /* \"#utility.yul\":19535:19554   */\n      swap1\n      pop\n        /* \"#utility.yul\":19194:19560   */\n      swap2\n      swap1\n      pop\n      jump\t// out\n        /* \"#utility.yul\":19566:19985   */\n    tag_86:\n        /* \"#utility.yul\":19732:19736   */\n      0x00\n        /* \"#utility.yul\":19770:19772   */\n      0x20\n        /* \"#utility.yul\":19759:19768   */\n      dup3\n        /* \"#utility.yul\":19755:19773   */\n      add\n        /* \"#utility.yul\":19747:19773   */\n      swap1\n      pop\n        /* \"#utility.yul\":19819:19828   */\n      dup2\n        /* \"#utility.yul\":19813:19817   */\n      dup2\n        /* \"#utility.yul\":19809:19829   */\n      sub\n        /* \"#utility.yul\":19805:19806   */\n      0x00\n        /* \"#utility.yul\":19794:19803   */\n      dup4\n        /* \"#utility.yul\":19790:19807   */\n      add\n        /* \"#utility.yul\":19783:19830   */\n      mstore\n        /* \"#utility.yul\":19847:19978   */\n      tag_354\n        /* \"#utility.yul\":19973:19977   */\n      dup2\n        /* \"#utility.yul\":19847:19978   */\n      tag_152\n      jump\t// in\n    tag_354:\n        /* \"#utility.yul\":19839:19978   */\n      swap1\n      pop\n        /* \"#utility.yul\":19566:19985   */\n      swap2\n      swap1\n      pop\n      jump\t// out\n\n    auxdata: 0xa2646970667358221220b62cffc409a7e63785e515aff84c32745aa41f7d60f92b5fc89013e42049187a64736f6c63430008190033\n}\n",
				"bytecode": {
					"linkReferences": {},
					"object": "6080604052348015600e575f80fd5b506001805f3373ffffffffffffffffffffffffffffffffffffffff1673ffffffffffffffffffffffffffffffffffffffff1681526020019081526020015f205f6101000a81548160ff02191690831515021790555061140f806100705f395ff3fe608060405234801561000f575f80fd5b5060043610610055575f3560e01c806369a1649c146100595780638865829314610089578063929066f5146100b9578063d374cd04146100e9578063dfafe10f14610105575b5f80fd5b610073600480360381019061006e9190610a6d565b610121565b6040516100809190610c37565b60405180910390f35b6100a3600480360381019061009e9190610a6d565b6102a9565b6040516100b09190610c37565b60405180910390f35b6100d360048036038101906100ce9190610a6d565b610432565b6040516100e09190610c71565b60405180910390f35b61010360048036038101906100fe9190610ea4565b61044f565b005b61011f600480360381019061011a9190610a6d565b61078f565b005b60605f808373ffffffffffffffffffffffffffffffffffffffff1673ffffffffffffffffffffffffffffffffffffffff1681526020019081526020015f205f01805480602002602001604051908101604052809291908181526020015f905b8282101561029e578382905f5260205f2090600302016040518060600160405290815f8201548152602001600182015f9054906101000a900473ffffffffffffffffffffffffffffffffffffffff1673ffffffffffffffffffffffffffffffffffffffff1673ffffffffffffffffffffffffffffffffffffffff16815260200160028201805461020f90610f80565b80601f016020809104026020016040519081016040528092919081815260200182805461023b90610f80565b80156102865780601f1061025d57610100808354040283529160200191610286565b820191905f5260205f20905b81548152906001019060200180831161026957829003601f168201915b50505050508152505081526020019060010190610180565b505050509050919050565b60605f808373ffffffffffffffffffffffffffffffffffffffff1673ffffffffffffffffffffffffffffffffffffffff1681526020019081526020015f20600101805480602002602001604051908101604052809291908181526020015f905b82821015610427578382905f5260205f2090600302016040518060600160405290815f8201548152602001600182015f9054906101000a900473ffffffffffffffffffffffffffffffffffffffff1673ffffffffffffffffffffffffffffffffffffffff1673ffffffffffffffffffffffffffffffffffffffff16815260200160028201805461039890610f80565b80601f01602080910402602001604051908101604052809291908181526020018280546103c490610f80565b801561040f5780601f106103e65761010080835404028352916020019161040f565b820191905f5260205f20905b8154815290600101906020018083116103f257829003601f168201915b50505050508152505081526020019060010190610309565b505050509050919050565b6001602052805f5260405f205f915054906101000a900460ff1681565b6001151560015f3373ffffffffffffffffffffffffffffffffffffffff1673ffffffffffffffffffffffffffffffffffffffff1681526020019081526020015f205f9054906101000a900460ff161515146104a8575f80fd5b6104b1826108ce565b5f60405180606001604052808681526020018573ffffffffffffffffffffffffffffffffffffffff1681526020018381525090505f808773ffffffffffffffffffffffffffffffffffffffff1673ffffffffffffffffffffffffffffffffffffffff1681526020019081526020015f205f0181908060018154018082558091505060019003905f5260205f2090600302015f909190919091505f820151815f01556020820151816001015f6101000a81548173ffffffffffffffffffffffffffffffffffffffff021916908373ffffffffffffffffffffffffffffffffffffffff16021790555060408201518160020190816105ad919061114d565b5050507fc316d685424d9f980b99e161b781b1c19a5ec59c91f22cb765b77d01cb11d7268685876040516105e39392919061123a565b60405180910390a15f5b8351811015610786575f604051806060016040528086518961060f919061129c565b81526020018773ffffffffffffffffffffffffffffffffffffffff1681526020018581525090505f8086848151811061064b5761064a6112cc565b5b602002602001015173ffffffffffffffffffffffffffffffffffffffff1673ffffffffffffffffffffffffffffffffffffffff1681526020019081526020015f2060010181908060018154018082558091505060019003905f5260205f2090600302015f909190919091505f820151815f01556020820151816001015f6101000a81548173ffffffffffffffffffffffffffffffffffffffff021916908373ffffffffffffffffffffffffffffffffffffffff1602179055506040820151816002019081610719919061114d565b5050507fadaf394892b1b52049899c89e60475167c97dca974e9ad433c41ca79d124df9a8583815181106107505761074f6112cc565b5b60200260200101518260200151835f01516040516107709392919061123a565b60405180910390a15080806001019150506105ed565b50505050505050565b6001151560015f3373ffffffffffffffffffffffffffffffffffffffff1673ffffffffffffffffffffffffffffffffffffffff1681526020019081526020015f205f9054906101000a900460ff161515146107e8575f80fd5b5f151560015f8373ffffffffffffffffffffffffffffffffffffffff1673ffffffffffffffffffffffffffffffffffffffff1681526020019081526020015f205f9054906101000a900460ff16151514610877576040517f08c379a000000000000000000000000000000000000000000000000000000000815260040161086e90611353565b60405180910390fd5b6001805f8373ffffffffffffffffffffffffffffffffffffffff1673ffffffffffffffffffffffffffffffffffffffff1681526020019081526020015f205f6101000a81548160ff02191690831515021790555050565b5f5b81518110156109fe576001151560015f8484815181106108f3576108f26112cc565b5b602002602001015173ffffffffffffffffffffffffffffffffffffffff1673ffffffffffffffffffffffffffffffffffffffff1681526020019081526020015f205f9054906101000a900460ff16151514610983576040517f08c379a000000000000000000000000000000000000000000000000000000000815260040161097a906113bb565b60405180910390fd5b6001805f84848151811061099a576109996112cc565b5b602002602001015173ffffffffffffffffffffffffffffffffffffffff1673ffffffffffffffffffffffffffffffffffffffff1681526020019081526020015f205f6101000a81548160ff02191690831515021790555080806001019150506108d0565b5050565b5f604051905090565b5f80fd5b5f80fd5b5f73ffffffffffffffffffffffffffffffffffffffff82169050919050565b5f610a3c82610a13565b9050919050565b610a4c81610a32565b8114610a56575f80fd5b50565b5f81359050610a6781610a43565b92915050565b5f60208284031215610a8257610a81610a0b565b5b5f610a8f84828501610a59565b91505092915050565b5f81519050919050565b5f82825260208201905092915050565b5f819050602082019050919050565b5f819050919050565b610ad381610ac1565b82525050565b610ae281610a32565b82525050565b5f81519050919050565b5f82825260208201905092915050565b8281835e5f83830152505050565b5f601f19601f8301169050919050565b5f610b2a82610ae8565b610b348185610af2565b9350610b44818560208601610b02565b610b4d81610b10565b840191505092915050565b5f606083015f830151610b6d5f860182610aca565b506020830151610b806020860182610ad9565b5060408301518482036040860152610b988282610b20565b9150508091505092915050565b5f610bb08383610b58565b905092915050565b5f602082019050919050565b5f610bce82610a98565b610bd88185610aa2565b935083602082028501610bea85610ab2565b805f5b85811015610c255784840389528151610c068582610ba5565b9450610c1183610bb8565b925060208a01995050600181019050610bed565b50829750879550505050505092915050565b5f6020820190508181035f830152610c4f8184610bc4565b905092915050565b5f8115159050919050565b610c6b81610c57565b82525050565b5f602082019050610c845f830184610c62565b92915050565b610c9381610ac1565b8114610c9d575f80fd5b50565b5f81359050610cae81610c8a565b92915050565b5f80fd5b7f4e487b71000000000000000000000000000000000000000000000000000000005f52604160045260245ffd5b610cee82610b10565b810181811067ffffffffffffffff82111715610d0d57610d0c610cb8565b5b80604052505050565b5f610d1f610a02565b9050610d2b8282610ce5565b919050565b5f67ffffffffffffffff821115610d4a57610d49610cb8565b5b602082029050602081019050919050565b5f80fd5b5f610d71610d6c84610d30565b610d16565b90508083825260208201905060208402830185811115610d9457610d93610d5b565b5b835b81811015610dbd5780610da98882610a59565b845260208401935050602081019050610d96565b5050509392505050565b5f82601f830112610ddb57610dda610cb4565b5b8135610deb848260208601610d5f565b91505092915050565b5f80fd5b5f67ffffffffffffffff821115610e1257610e11610cb8565b5b610e1b82610b10565b9050602081019050919050565b828183375f83830152505050565b5f610e48610e4384610df8565b610d16565b905082815260208101848484011115610e6457610e63610df4565b5b610e6f848285610e28565b509392505050565b5f82601f830112610e8b57610e8a610cb4565b5b8135610e9b848260208601610e36565b91505092915050565b5f805f805f60a08688031215610ebd57610ebc610a0b565b5b5f610eca88828901610a59565b9550506020610edb88828901610ca0565b9450506040610eec88828901610a59565b935050606086013567ffffffffffffffff811115610f0d57610f0c610a0f565b5b610f1988828901610dc7565b925050608086013567ffffffffffffffff811115610f3a57610f39610a0f565b5b610f4688828901610e77565b9150509295509295909350565b7f4e487b71000000000000000000000000000000000000000000000000000000005f52602260045260245ffd5b5f6002820490506001821680610f9757607f821691505b602082108103610faa57610fa9610f53565b5b50919050565b5f819050815f5260205f209050919050565b5f6020601f8301049050919050565b5f82821b905092915050565b5f6008830261100c7fffffffffffffffffffffffffffffffffffffffffffffffffffffffffffffffff82610fd1565b6110168683610fd1565b95508019841693508086168417925050509392505050565b5f819050919050565b5f61105161104c61104784610ac1565b61102e565b610ac1565b9050919050565b5f819050919050565b61106a83611037565b61107e61107682611058565b848454610fdd565b825550505050565b5f90565b611092611086565b61109d818484611061565b505050565b5b818110156110c0576110b55f8261108a565b6001810190506110a3565b5050565b601f821115611105576110d681610fb0565b6110df84610fc2565b810160208510156110ee578190505b6111026110fa85610fc2565b8301826110a2565b50505b505050565b5f82821c905092915050565b5f6111255f198460080261110a565b1980831691505092915050565b5f61113d8383611116565b9150826002028217905092915050565b61115682610ae8565b67ffffffffffffffff81111561116f5761116e610cb8565b5b6111798254610f80565b6111848282856110c4565b5f60209050601f8311600181146111b5575f84156111a3578287015190505b6111ad8582611132565b865550611214565b601f1984166111c386610fb0565b5f5b828110156111ea578489015182556001820191506020850194506020810190506111c5565b868310156112075784890151611203601f891682611116565b8355505b6001600288020188555050505b505050505050565b61122581610a32565b82525050565b61123481610ac1565b82525050565b5f60608201905061124d5f83018661121c565b61125a602083018561121c565b611267604083018461122b565b949350505050565b7f4e487b71000000000000000000000000000000000000000000000000000000005f52601260045260245ffd5b5f6112a682610ac1565b91506112b183610ac1565b9250826112c1576112c061126f565b5b828204905092915050565b7f4e487b71000000000000000000000000000000000000000000000000000000005f52603260045260245ffd5b5f82825260208201905092915050565b7f6164647265737320697320616c72656164792061207061727469636970616e745f82015250565b5f61133d6020836112f9565b915061134882611309565b602082019050919050565b5f6020820190508181035f83015261136a81611331565b9050919050565b7f646562746f72206973206973206e6f742061207061727469636970616e7400005f82015250565b5f6113a5601e836112f9565b91506113b082611371565b602082019050919050565b5f6020820190508181035f8301526113d281611399565b905091905056fea2646970667358221220b62cffc409a7e63785e515aff84c32745aa41f7d60f92b5fc89013e42049187a64736f6c63430008190033",
					"opcodes": "PUSH1 0x80 PUSH1 0x40 MSTORE CALLVALUE DUP1 ISZERO PUSH1 0xE JUMPI PUSH0 DUP1 REVERT JUMPDEST POP PUSH1 0x1 DUP1 PUSH0 CALLER PUSH20 0xFFFFFFFFFFFFFFFFFFFFFFFFFFFFFFFFFFFFFFFF AND PUSH20 0xFFFFFFFFFFFFFFFFFFFFFFFFFFFFFFFFFFFFFFFF AND DUP2 MSTORE PUSH1 0x20 ADD SWAP1 DUP2 MSTORE PUSH1 0x20 ADD PUSH0 KECCAK256 PUSH0 PUSH2 0x100 EXP DUP2 SLOAD DUP2 PUSH1 0xFF MUL NOT AND SWAP1 DUP4 ISZERO ISZERO MUL OR SWAP1 SSTORE POP PUSH2 0x140F DUP1 PUSH2 0x70 PUSH0 CODECOPY PUSH0 RETURN INVALID PUSH1 0x80 PUSH1 0x40 MSTORE CALLVALUE DUP1 ISZERO PUSH2 0xF JUMPI PUSH0 DUP1 REVERT JUMPDEST POP PUSH1 0x4 CALLDATASIZE LT PUSH2 0x55 JUMPI PUSH0 CALLDATALOAD PUSH1 0xE0 SHR DUP1 PUSH4 0x69A1649C EQ PUSH2 0x59 JUMPI DUP1 PUSH4 0x88658293 EQ PUSH2 0x89 JUMPI DUP1 PUSH4 0x929066F5 EQ PUSH2 0xB9 JUMPI DUP1 PUSH4 0xD374CD04 EQ PUSH2 0xE9 JUMPI DUP1 PUSH4 0xDFAFE10F EQ PUSH2 0x105 JUMPI JUMPDEST PUSH0 DUP1 REVERT JUMPDEST PUSH2 0x73 PUSH1 0x4 DUP1 CALLDATASIZE SUB DUP2 ADD SWAP1 PUSH2 0x6E SWAP2 SWAP1 PUSH2 0xA6D JUMP JUMPDEST PUSH2 0x121 JUMP JUMPDEST PUSH1 0x40 MLOAD PUSH2 0x80 SWAP2 SWAP1 PUSH2 0xC37 JUMP JUMPDEST PUSH1 0x40 MLOAD DUP1 SWAP2 SUB SWAP1 RETURN JUMPDEST PUSH2 0xA3 PUSH1 0x4 DUP1 CALLDATASIZE SUB DUP2 ADD SWAP1 PUSH2 0x9E SWAP2 SWAP1 PUSH2 0xA6D JUMP JUMPDEST PUSH2 0x2A9 JUMP JUMPDEST PUSH1 0x40 MLOAD PUSH2 0xB0 SWAP2 SWAP1 PUSH2 0xC37 JUMP JUMPDEST PUSH1 0x40 MLOAD DUP1 SWAP2 SUB SWAP1 RETURN JUMPDEST PUSH2 0xD3 PUSH1 0x4 DUP1 CALLDATASIZE SUB DUP2 ADD SWAP1 PUSH2 0xCE SWAP2 SWAP1 PUSH2 0xA6D JUMP JUMPDEST PUSH2 0x432 JUMP JUMPDEST PUSH1 0x40 MLOAD PUSH2 0xE0 SWAP2 SWAP1 PUSH2 0xC71 JUMP JUMPDEST PUSH1 0x40 MLOAD DUP1 SWAP2 SUB SWAP1 RETURN JUMPDEST PUSH2 0x103 PUSH1 0x4 DUP1 CALLDATASIZE SUB DUP2 ADD SWAP1 PUSH2 0xFE SWAP2 SWAP1 PUSH2 0xEA4 JUMP JUMPDEST PUSH2 0x44F JUMP JUMPDEST STOP JUMPDEST PUSH2 0x11F PUSH1 0x4 DUP1 CALLDATASIZE SUB DUP2 ADD SWAP1 PUSH2 0x11A SWAP2 SWAP1 PUSH2 0xA6D JUMP JUMPDEST PUSH2 0x78F JUMP JUMPDEST STOP JUMPDEST PUSH1 0x60 PUSH0 DUP1 DUP4 PUSH20 0xFFFFFFFFFFFFFFFFFFFFFFFFFFFFFFFFFFFFFFFF AND PUSH20 0xFFFFFFFFFFFFFFFFFFFFFFFFFFFFFFFFFFFFFFFF AND DUP2 MSTORE PUSH1 0x20 ADD SWAP1 DUP2 MSTORE PUSH1 0x20 ADD PUSH0 KECCAK256 PUSH0 ADD DUP1 SLOAD DUP1 PUSH1 0x20 MUL PUSH1 0x20 ADD PUSH1 0x40 MLOAD SWAP1 DUP2 ADD PUSH1 0x40 MSTORE DUP1 SWAP3 SWAP2 SWAP1 DUP2 DUP2 MSTORE PUSH1 0x20 ADD PUSH0 SWAP1 JUMPDEST DUP3 DUP3 LT ISZERO PUSH2 0x29E JUMPI DUP4 DUP3 SWAP1 PUSH0 MSTORE PUSH1 0x20 PUSH0 KECCAK256 SWAP1 PUSH1 0x3 MUL ADD PUSH1 0x40 MLOAD DUP1 PUSH1 0x60 ADD PUSH1 0x40 MSTORE SWAP1 DUP2 PUSH0 DUP3 ADD SLOAD DUP2 MSTORE PUSH1 0x20 ADD PUSH1 0x1 DUP3 ADD PUSH0 SWAP1 SLOAD SWAP1 PUSH2 0x100 EXP SWAP1 DIV PUSH20 0xFFFFFFFFFFFFFFFFFFFFFFFFFFFFFFFFFFFFFFFF AND PUSH20 0xFFFFFFFFFFFFFFFFFFFFFFFFFFFFFFFFFFFFFFFF AND PUSH20 0xFFFFFFFFFFFFFFFFFFFFFFFFFFFFFFFFFFFFFFFF AND DUP2 MSTORE PUSH1 0x20 ADD PUSH1 0x2 DUP3 ADD DUP1 SLOAD PUSH2 0x20F SWAP1 PUSH2 0xF80 JUMP JUMPDEST DUP1 PUSH1 0x1F ADD PUSH1 0x20 DUP1 SWAP2 DIV MUL PUSH1 0x20 ADD PUSH1 0x40 MLOAD SWAP1 DUP2 ADD PUSH1 0x40 MSTORE DUP1 SWAP3 SWAP2 SWAP1 DUP2 DUP2 MSTORE PUSH1 0x20 ADD DUP3 DUP1 SLOAD PUSH2 0x23B SWAP1 PUSH2 0xF80 JUMP JUMPDEST DUP1 ISZERO PUSH2 0x286 JUMPI DUP1 PUSH1 0x1F LT PUSH2 0x25D JUMPI PUSH2 0x100 DUP1 DUP4 SLOAD DIV MUL DUP4 MSTORE SWAP2 PUSH1 0x20 ADD SWAP2 PUSH2 0x286 JUMP JUMPDEST DUP3 ADD SWAP2 SWAP1 PUSH0 MSTORE PUSH1 0x20 PUSH0 KECCAK256 SWAP1 JUMPDEST DUP2 SLOAD DUP2 MSTORE SWAP1 PUSH1 0x1 ADD SWAP1 PUSH1 0x20 ADD DUP1 DUP4 GT PUSH2 0x269 JUMPI DUP3 SWAP1 SUB PUSH1 0x1F AND DUP3 ADD SWAP2 JUMPDEST POP POP POP POP POP DUP2 MSTORE POP POP DUP2 MSTORE PUSH1 0x20 ADD SWAP1 PUSH1 0x1 ADD SWAP1 PUSH2 0x180 JUMP JUMPDEST POP POP POP POP SWAP1 POP SWAP2 SWAP1 POP JUMP JUMPDEST PUSH1 0x60 PUSH0 DUP1 DUP4 PUSH20 0xFFFFFFFFFFFFFFFFFFFFFFFFFFFFFFFFFFFFFFFF AND PUSH20 0xFFFFFFFFFFFFFFFFFFFFFFFFFFFFFFFFFFFFFFFF AND DUP2 MSTORE PUSH1 0x20 ADD SWAP1 DUP2 MSTORE PUSH1 0x20 ADD PUSH0 KECCAK256 PUSH1 0x1 ADD DUP1 SLOAD DUP1 PUSH1 0x20 MUL PUSH1 0x20 ADD PUSH1 0x40 MLOAD SWAP1 DUP2 ADD PUSH1 0x40 MSTORE DUP1 SWAP3 SWAP2 SWAP1 DUP2 DUP2 MSTORE PUSH1 0x20 ADD PUSH0 SWAP1 JUMPDEST DUP3 DUP3 LT ISZERO PUSH2 0x427 JUMPI DUP4 DUP3 SWAP1 PUSH0 MSTORE PUSH1 0x20 PUSH0 KECCAK256 SWAP1 PUSH1 0x3 MUL ADD PUSH1 0x40 MLOAD DUP1 PUSH1 0x60 ADD PUSH1 0x40 MSTORE SWAP1 DUP2 PUSH0 DUP3 ADD SLOAD DUP2 MSTORE PUSH1 0x20 ADD PUSH1 0x1 DUP3 ADD PUSH0 SWAP1 SLOAD SWAP1 PUSH2 0x100 EXP SWAP1 DIV PUSH20 0xFFFFFFFFFFFFFFFFFFFFFFFFFFFFFFFFFFFFFFFF AND PUSH20 0xFFFFFFFFFFFFFFFFFFFFFFFFFFFFFFFFFFFFFFFF AND PUSH20 0xFFFFFFFFFFFFFFFFFFFFFFFFFFFFFFFFFFFFFFFF AND DUP2 MSTORE PUSH1 0x20 ADD PUSH1 0x2 DUP3 ADD DUP1 SLOAD PUSH2 0x398 SWAP1 PUSH2 0xF80 JUMP JUMPDEST DUP1 PUSH1 0x1F ADD PUSH1 0x20 DUP1 SWAP2 DIV MUL PUSH1 0x20 ADD PUSH1 0x40 MLOAD SWAP1 DUP2 ADD PUSH1 0x40 MSTORE DUP1 SWAP3 SWAP2 SWAP1 DUP2 DUP2 MSTORE PUSH1 0x20 ADD DUP3 DUP1 SLOAD PUSH2 0x3C4 SWAP1 PUSH2 0xF80 JUMP JUMPDEST DUP1 ISZERO PUSH2 0x40F JUMPI DUP1 PUSH1 0x1F LT PUSH2 0x3E6 JUMPI PUSH2 0x100 DUP1 DUP4 SLOAD DIV MUL DUP4 MSTORE SWAP2 PUSH1 0x20 ADD SWAP2 PUSH2 0x40F JUMP JUMPDEST DUP3 ADD SWAP2 SWAP1 PUSH0 MSTORE PUSH1 0x20 PUSH0 KECCAK256 SWAP1 JUMPDEST DUP2 SLOAD DUP2 MSTORE SWAP1 PUSH1 0x1 ADD SWAP1 PUSH1 0x20 ADD DUP1 DUP4 GT PUSH2 0x3F2 JUMPI DUP3 SWAP1 SUB PUSH1 0x1F AND DUP3 ADD SWAP2 JUMPDEST POP POP POP POP POP DUP2 MSTORE POP POP DUP2 MSTORE PUSH1 0x20 ADD SWAP1 PUSH1 0x1 ADD SWAP1 PUSH2 0x309 JUMP JUMPDEST POP POP POP POP SWAP1 POP SWAP2 SWAP1 POP JUMP JUMPDEST PUSH1 0x1 PUSH1 0x20 MSTORE DUP1 PUSH0 MSTORE PUSH1 0x40 PUSH0 KECCAK256 PUSH0 SWAP2 POP SLOAD SWAP1 PUSH2 0x100 EXP SWAP1 DIV PUSH1 0xFF AND DUP2 JUMP JUMPDEST PUSH1 0x1 ISZERO ISZERO PUSH1 0x1 PUSH0 CALLER PUSH20 0xFFFFFFFFFFFFFFFFFFFFFFFFFFFFFFFFFFFFFFFF AND PUSH20 0xFFFFFFFFFFFFFFFFFFFFFFFFFFFFFFFFFFFFFFFF AND DUP2 MSTORE PUSH1 0x20 ADD SWAP1 DUP2 MSTORE PUSH1 0x20 ADD PUSH0 KECCAK256 PUSH0 SWAP1 SLOAD SWAP1 PUSH2 0x100 EXP SWAP1 DIV PUSH1 0xFF AND ISZERO ISZERO EQ PUSH2 0x4A8 JUMPI PUSH0 DUP1 REVERT JUMPDEST PUSH2 0x4B1 DUP3 PUSH2 0x8CE JUMP JUMPDEST PUSH0 PUSH1 0x40 MLOAD DUP1 PUSH1 0x60 ADD PUSH1 0x40 MSTORE DUP1 DUP7 DUP2 MSTORE PUSH1 0x20 ADD DUP6 PUSH20 0xFFFFFFFFFFFFFFFFFFFFFFFFFFFFFFFFFFFFFFFF AND DUP2 MSTORE PUSH1 0x20 ADD DUP4 DUP2 MSTORE POP SWAP1 POP PUSH0 DUP1 DUP8 PUSH20 0xFFFFFFFFFFFFFFFFFFFFFFFFFFFFFFFFFFFFFFFF AND PUSH20 0xFFFFFFFFFFFFFFFFFFFFFFFFFFFFFFFFFFFFFFFF AND DUP2 MSTORE PUSH1 0x20 ADD SWAP1 DUP2 MSTORE PUSH1 0x20 ADD PUSH0 KECCAK256 PUSH0 ADD DUP2 SWAP1 DUP1 PUSH1 0x1 DUP2 SLOAD ADD DUP1 DUP3 SSTORE DUP1 SWAP2 POP POP PUSH1 0x1 SWAP1 SUB SWAP1 PUSH0 MSTORE PUSH1 0x20 PUSH0 KECCAK256 SWAP1 PUSH1 0x3 MUL ADD PUSH0 SWAP1 SWAP2 SWAP1 SWAP2 SWAP1 SWAP2 POP PUSH0 DUP3 ADD MLOAD DUP2 PUSH0 ADD SSTORE PUSH1 0x20 DUP3 ADD MLOAD DUP2 PUSH1 0x1 ADD PUSH0 PUSH2 0x100 EXP DUP2 SLOAD DUP2 PUSH20 0xFFFFFFFFFFFFFFFFFFFFFFFFFFFFFFFFFFFFFFFF MUL NOT AND SWAP1 DUP4 PUSH20 0xFFFFFFFFFFFFFFFFFFFFFFFFFFFFFFFFFFFFFFFF AND MUL OR SWAP1 SSTORE POP PUSH1 0x40 DUP3 ADD MLOAD DUP2 PUSH1 0x2 ADD SWAP1 DUP2 PUSH2 0x5AD SWAP2 SWAP1 PUSH2 0x114D JUMP JUMPDEST POP POP POP PUSH32 0xC316D685424D9F980B99E161B781B1C19A5EC59C91F22CB765B77D01CB11D726 DUP7 DUP6 DUP8 PUSH1 0x40 MLOAD PUSH2 0x5E3 SWAP4 SWAP3 SWAP2 SWAP1 PUSH2 0x123A JUMP JUMPDEST PUSH1 0x40 MLOAD DUP1 SWAP2 SUB SWAP1 LOG1 PUSH0 JUMPDEST DUP4 MLOAD DUP2 LT ISZERO PUSH2 0x786 JUMPI PUSH0 PUSH1 0x40 MLOAD DUP1 PUSH1 0x60 ADD PUSH1 0x40 MSTORE DUP1 DUP7 MLOAD DUP10 PUSH2 0x60F SWAP2 SWAP1 PUSH2 0x129C JUMP JUMPDEST DUP2 MSTORE PUSH1 0x20 ADD DUP8 PUSH20 0xFFFFFFFFFFFFFFFFFFFFFFFFFFFFFFFFFFFFFFFF AND DUP2 MSTORE PUSH1 0x20 ADD DUP6 DUP2 MSTORE POP SWAP1 POP PUSH0 DUP1 DUP7 DUP5 DUP2 MLOAD DUP2 LT PUSH2 0x64B JUMPI PUSH2 0x64A PUSH2 0x12CC JUMP JUMPDEST JUMPDEST PUSH1 0x20 MUL PUSH1 0x20 ADD ADD MLOAD PUSH20 0xFFFFFFFFFFFFFFFFFFFFFFFFFFFFFFFFFFFFFFFF AND PUSH20 0xFFFFFFFFFFFFFFFFFFFFFFFFFFFFFFFFFFFFFFFF AND DUP2 MSTORE PUSH1 0x20 ADD SWAP1 DUP2 MSTORE PUSH1 0x20 ADD PUSH0 KECCAK256 PUSH1 0x1 ADD DUP2 SWAP1 DUP1 PUSH1 0x1 DUP2 SLOAD ADD DUP1 DUP3 SSTORE DUP1 SWAP2 POP POP PUSH1 0x1 SWAP1 SUB SWAP1 PUSH0 MSTORE PUSH1 0x20 PUSH0 KECCAK256 SWAP1 PUSH1 0x3 MUL ADD PUSH0 SWAP1 SWAP2 SWAP1 SWAP2 SWAP1 SWAP2 POP PUSH0 DUP3 ADD MLOAD DUP2 PUSH0 ADD SSTORE PUSH1 0x20 DUP3 ADD MLOAD DUP2 PUSH1 0x1 ADD PUSH0 PUSH2 0x100 EXP DUP2 SLOAD DUP2 PUSH20 0xFFFFFFFFFFFFFFFFFFFFFFFFFFFFFFFFFFFFFFFF MUL NOT AND SWAP1 DUP4 PUSH20 0xFFFFFFFFFFFFFFFFFFFFFFFFFFFFFFFFFFFFFFFF AND MUL OR SWAP1 SSTORE POP PUSH1 0x40 DUP3 ADD MLOAD DUP2 PUSH1 0x2 ADD SWAP1 DUP2 PUSH2 0x719 SWAP2 SWAP1 PUSH2 0x114D JUMP JUMPDEST POP POP POP PUSH32 0xADAF394892B1B52049899C89E60475167C97DCA974E9AD433C41CA79D124DF9A DUP6 DUP4 DUP2 MLOAD DUP2 LT PUSH2 0x750 JUMPI PUSH2 0x74F PUSH2 0x12CC JUMP JUMPDEST JUMPDEST PUSH1 0x20 MUL PUSH1 0x20 ADD ADD MLOAD DUP3 PUSH1 0x20 ADD MLOAD DUP4 PUSH0 ADD MLOAD PUSH1 0x40 MLOAD PUSH2 0x770 SWAP4 SWAP3 SWAP2 SWAP1 PUSH2 0x123A JUMP JUMPDEST PUSH1 0x40 MLOAD DUP1 SWAP2 SUB SWAP1 LOG1 POP DUP1 DUP1 PUSH1 0x1 ADD SWAP2 POP POP PUSH2 0x5ED JUMP JUMPDEST POP POP POP POP POP POP POP JUMP JUMPDEST PUSH1 0x1 ISZERO ISZERO PUSH1 0x1 PUSH0 CALLER PUSH20 0xFFFFFFFFFFFFFFFFFFFFFFFFFFFFFFFFFFFFFFFF AND PUSH20 0xFFFFFFFFFFFFFFFFFFFFFFFFFFFFFFFFFFFFFFFF AND DUP2 MSTORE PUSH1 0x20 ADD SWAP1 DUP2 MSTORE PUSH1 0x20 ADD PUSH0 KECCAK256 PUSH0 SWAP1 SLOAD SWAP1 PUSH2 0x100 EXP SWAP1 DIV PUSH1 0xFF AND ISZERO ISZERO EQ PUSH2 0x7E8 JUMPI PUSH0 DUP1 REVERT JUMPDEST PUSH0 ISZERO ISZERO PUSH1 0x1 PUSH0 DUP4 PUSH20 0xFFFFFFFFFFFFFFFFFFFFFFFFFFFFFFFFFFFFFFFF AND PUSH20 0xFFFFFFFFFFFFFFFFFFFFFFFFFFFFFFFFFFFFFFFF AND DUP2 MSTORE PUSH1 0x20 ADD SWAP1 DUP2 MSTORE PUSH1 0x20 ADD PUSH0 KECCAK256 PUSH0 SWAP1 SLOAD SWAP1 PUSH2 0x100 EXP SWAP1 DIV PUSH1 0xFF AND ISZERO ISZERO EQ PUSH2 0x877 JUMPI PUSH1 0x40 MLOAD PUSH32 0x8C379A000000000000000000000000000000000000000000000000000000000 DUP2 MSTORE PUSH1 0x4 ADD PUSH2 0x86E SWAP1 PUSH2 0x1353 JUMP JUMPDEST PUSH1 0x40 MLOAD DUP1 SWAP2 SUB SWAP1 REVERT JUMPDEST PUSH1 0x1 DUP1 PUSH0 DUP4 PUSH20 0xFFFFFFFFFFFFFFFFFFFFFFFFFFFFFFFFFFFFFFFF AND PUSH20 0xFFFFFFFFFFFFFFFFFFFFFFFFFFFFFFFFFFFFFFFF AND DUP2 MSTORE PUSH1 0x20 ADD SWAP1 DUP2 MSTORE PUSH1 0x20 ADD PUSH0 KECCAK256 PUSH0 PUSH2 0x100 EXP DUP2 SLOAD DUP2 PUSH1 0xFF MUL NOT AND SWAP1 DUP4 ISZERO ISZERO MUL OR SWAP1 SSTORE POP POP JUMP JUMPDEST PUSH0 JUMPDEST DUP2 MLOAD DUP2 LT ISZERO PUSH2 0x9FE JUMPI PUSH1 0x1 ISZERO ISZERO PUSH1 0x1 PUSH0 DUP5 DUP5 DUP2 MLOAD DUP2 LT PUSH2 0x8F3 JUMPI PUSH2 0x8F2 PUSH2 0x12CC JUMP JUMPDEST JUMPDEST PUSH1 0x20 MUL PUSH1 0x20 ADD ADD MLOAD PUSH20 0xFFFFFFFFFFFFFFFFFFFFFFFFFFFFFFFFFFFFFFFF AND PUSH20 0xFFFFFFFFFFFFFFFFFFFFFFFFFFFFFFFFFFFFFFFF AND DUP2 MSTORE PUSH1 0x20 ADD SWAP1 DUP2 MSTORE PUSH1 0x20 ADD PUSH0 KECCAK256 PUSH0 SWAP1 SLOAD SWAP1 PUSH2 0x100 EXP SWAP1 DIV PUSH1 0xFF AND ISZERO ISZERO EQ PUSH2 0x983 JUMPI PUSH1 0x40 MLOAD PUSH32 0x8C379A000000000000000000000000000000000000000000000000000000000 DUP2 MSTORE PUSH1 0x4 ADD PUSH2 0x97A SWAP1 PUSH2 0x13BB JUMP JUMPDEST PUSH1 0x40 MLOAD DUP1 SWAP2 SUB SWAP1 REVERT JUMPDEST PUSH1 0x1 DUP1 PUSH0 DUP5 DUP5 DUP2 MLOAD DUP2 LT PUSH2 0x99A JUMPI PUSH2 0x999 PUSH2 0x12CC JUMP JUMPDEST JUMPDEST PUSH1 0x20 MUL PUSH1 0x20 ADD ADD MLOAD PUSH20 0xFFFFFFFFFFFFFFFFFFFFFFFFFFFFFFFFFFFFFFFF AND PUSH20 0xFFFFFFFFFFFFFFFFFFFFFFFFFFFFFFFFFFFFFFFF AND DUP2 MSTORE PUSH1 0x20 ADD SWAP1 DUP2 MSTORE PUSH1 0x20 ADD PUSH0 KECCAK256 PUSH0 PUSH2 0x100 EXP DUP2 SLOAD DUP2 PUSH1 0xFF MUL NOT AND SWAP1 DUP4 ISZERO ISZERO MUL OR SWAP1 SSTORE POP DUP1 DUP1 PUSH1 0x1 ADD SWAP2 POP POP PUSH2 0x8D0 JUMP JUMPDEST POP POP JUMP JUMPDEST PUSH0 PUSH1 0x40 MLOAD SWAP1 POP SWAP1 JUMP JUMPDEST PUSH0 DUP1 REVERT JUMPDEST PUSH0 DUP1 REVERT JUMPDEST PUSH0 PUSH20 0xFFFFFFFFFFFFFFFFFFFFFFFFFFFFFFFFFFFFFFFF DUP3 AND SWAP1 POP SWAP2 SWAP1 POP JUMP JUMPDEST PUSH0 PUSH2 0xA3C DUP3 PUSH2 0xA13 JUMP JUMPDEST SWAP1 POP SWAP2 SWAP1 POP JUMP JUMPDEST PUSH2 0xA4C DUP2 PUSH2 0xA32 JUMP JUMPDEST DUP2 EQ PUSH2 0xA56 JUMPI PUSH0 DUP1 REVERT JUMPDEST POP JUMP JUMPDEST PUSH0 DUP2 CALLDATALOAD SWAP1 POP PUSH2 0xA67 DUP2 PUSH2 0xA43 JUMP JUMPDEST SWAP3 SWAP2 POP POP JUMP JUMPDEST PUSH0 PUSH1 0x20 DUP3 DUP5 SUB SLT ISZERO PUSH2 0xA82 JUMPI PUSH2 0xA81 PUSH2 0xA0B JUMP JUMPDEST JUMPDEST PUSH0 PUSH2 0xA8F DUP5 DUP3 DUP6 ADD PUSH2 0xA59 JUMP JUMPDEST SWAP2 POP POP SWAP3 SWAP2 POP POP JUMP JUMPDEST PUSH0 DUP2 MLOAD SWAP1 POP SWAP2 SWAP1 POP JUMP JUMPDEST PUSH0 DUP3 DUP3 MSTORE PUSH1 0x20 DUP3 ADD SWAP1 POP SWAP3 SWAP2 POP POP JUMP JUMPDEST PUSH0 DUP2 SWAP1 POP PUSH1 0x20 DUP3 ADD SWAP1 POP SWAP2 SWAP1 POP JUMP JUMPDEST PUSH0 DUP2 SWAP1 POP SWAP2 SWAP1 POP JUMP JUMPDEST PUSH2 0xAD3 DUP2 PUSH2 0xAC1 JUMP JUMPDEST DUP3 MSTORE POP POP JUMP JUMPDEST PUSH2 0xAE2 DUP2 PUSH2 0xA32 JUMP JUMPDEST DUP3 MSTORE POP POP JUMP JUMPDEST PUSH0 DUP2 MLOAD SWAP1 POP SWAP2 SWAP1 POP JUMP JUMPDEST PUSH0 DUP3 DUP3 MSTORE PUSH1 0x20 DUP3 ADD SWAP1 POP SWAP3 SWAP2 POP POP JUMP JUMPDEST DUP3 DUP2 DUP4 MCOPY PUSH0 DUP4 DUP4 ADD MSTORE POP POP POP JUMP JUMPDEST PUSH0 PUSH1 0x1F NOT PUSH1 0x1F DUP4 ADD AND SWAP1 POP SWAP2 SWAP1 POP JUMP JUMPDEST PUSH0 PUSH2 0xB2A DUP3 PUSH2 0xAE8 JUMP JUMPDEST PUSH2 0xB34 DUP2 DUP6 PUSH2 0xAF2 JUMP JUMPDEST SWAP4 POP PUSH2 0xB44 DUP2 DUP6 PUSH1 0x20 DUP7 ADD PUSH2 0xB02 JUMP JUMPDEST PUSH2 0xB4D DUP2 PUSH2 0xB10 JUMP JUMPDEST DUP5 ADD SWAP2 POP POP SWAP3 SWAP2 POP POP JUMP JUMPDEST PUSH0 PUSH1 0x60 DUP4 ADD PUSH0 DUP4 ADD MLOAD PUSH2 0xB6D PUSH0 DUP7 ADD DUP3 PUSH2 0xACA JUMP JUMPDEST POP PUSH1 0x20 DUP4 ADD MLOAD PUSH2 0xB80 PUSH1 0x20 DUP7 ADD DUP3 PUSH2 0xAD9 JUMP JUMPDEST POP PUSH1 0x40 DUP4 ADD MLOAD DUP5 DUP3 SUB PUSH1 0x40 DUP7 ADD MSTORE PUSH2 0xB98 DUP3 DUP3 PUSH2 0xB20 JUMP JUMPDEST SWAP2 POP POP DUP1 SWAP2 POP POP SWAP3 SWAP2 POP POP JUMP JUMPDEST PUSH0 PUSH2 0xBB0 DUP4 DUP4 PUSH2 0xB58 JUMP JUMPDEST SWAP1 POP SWAP3 SWAP2 POP POP JUMP JUMPDEST PUSH0 PUSH1 0x20 DUP3 ADD SWAP1 POP SWAP2 SWAP1 POP JUMP JUMPDEST PUSH0 PUSH2 0xBCE DUP3 PUSH2 0xA98 JUMP JUMPDEST PUSH2 0xBD8 DUP2 DUP6 PUSH2 0xAA2 JUMP JUMPDEST SWAP4 POP DUP4 PUSH1 0x20 DUP3 MUL DUP6 ADD PUSH2 0xBEA DUP6 PUSH2 0xAB2 JUMP JUMPDEST DUP1 PUSH0 JUMPDEST DUP6 DUP2 LT ISZERO PUSH2 0xC25 JUMPI DUP5 DUP5 SUB DUP10 MSTORE DUP2 MLOAD PUSH2 0xC06 DUP6 DUP3 PUSH2 0xBA5 JUMP JUMPDEST SWAP5 POP PUSH2 0xC11 DUP4 PUSH2 0xBB8 JUMP JUMPDEST SWAP3 POP PUSH1 0x20 DUP11 ADD SWAP10 POP POP PUSH1 0x1 DUP2 ADD SWAP1 POP PUSH2 0xBED JUMP JUMPDEST POP DUP3 SWAP8 POP DUP8 SWAP6 POP POP POP POP POP POP SWAP3 SWAP2 POP POP JUMP JUMPDEST PUSH0 PUSH1 0x20 DUP3 ADD SWAP1 POP DUP2 DUP2 SUB PUSH0 DUP4 ADD MSTORE PUSH2 0xC4F DUP2 DUP5 PUSH2 0xBC4 JUMP JUMPDEST SWAP1 POP SWAP3 SWAP2 POP POP JUMP JUMPDEST PUSH0 DUP2 ISZERO ISZERO SWAP1 POP SWAP2 SWAP1 POP JUMP JUMPDEST PUSH2 0xC6B DUP2 PUSH2 0xC57 JUMP JUMPDEST DUP3 MSTORE POP POP JUMP JUMPDEST PUSH0 PUSH1 0x20 DUP3 ADD SWAP1 POP PUSH2 0xC84 PUSH0 DUP4 ADD DUP5 PUSH2 0xC62 JUMP JUMPDEST SWAP3 SWAP2 POP POP JUMP JUMPDEST PUSH2 0xC93 DUP2 PUSH2 0xAC1 JUMP JUMPDEST DUP2 EQ PUSH2 0xC9D JUMPI PUSH0 DUP1 REVERT JUMPDEST POP JUMP JUMPDEST PUSH0 DUP2 CALLDATALOAD SWAP1 POP PUSH2 0xCAE DUP2 PUSH2 0xC8A JUMP JUMPDEST SWAP3 SWAP2 POP POP JUMP JUMPDEST PUSH0 DUP1 REVERT JUMPDEST PUSH32 0x4E487B7100000000000000000000000000000000000000000000000000000000 PUSH0 MSTORE PUSH1 0x41 PUSH1 0x4 MSTORE PUSH1 0x24 PUSH0 REVERT JUMPDEST PUSH2 0xCEE DUP3 PUSH2 0xB10 JUMP JUMPDEST DUP2 ADD DUP2 DUP2 LT PUSH8 0xFFFFFFFFFFFFFFFF DUP3 GT OR ISZERO PUSH2 0xD0D JUMPI PUSH2 0xD0C PUSH2 0xCB8 JUMP JUMPDEST JUMPDEST DUP1 PUSH1 0x40 MSTORE POP POP POP JUMP JUMPDEST PUSH0 PUSH2 0xD1F PUSH2 0xA02 JUMP JUMPDEST SWAP1 POP PUSH2 0xD2B DUP3 DUP3 PUSH2 0xCE5 JUMP JUMPDEST SWAP2 SWAP1 POP JUMP JUMPDEST PUSH0 PUSH8 0xFFFFFFFFFFFFFFFF DUP3 GT ISZERO PUSH2 0xD4A JUMPI PUSH2 0xD49 PUSH2 0xCB8 JUMP JUMPDEST JUMPDEST PUSH1 0x20 DUP3 MUL SWAP1 POP PUSH1 0x20 DUP2 ADD SWAP1 POP SWAP2 SWAP1 POP JUMP JUMPDEST PUSH0 DUP1 REVERT JUMPDEST PUSH0 PUSH2 0xD71 PUSH2 0xD6C DUP5 PUSH2 0xD30 JUMP JUMPDEST PUSH2 0xD16 JUMP JUMPDEST SWAP1 POP DUP1 DUP4 DUP3 MSTORE PUSH1 0x20 DUP3 ADD SWAP1 POP PUSH1 0x20 DUP5 MUL DUP4 ADD DUP6 DUP2 GT ISZERO PUSH2 0xD94 JUMPI PUSH2 0xD93 PUSH2 0xD5B JUMP JUMPDEST JUMPDEST DUP4 JUMPDEST DUP2 DUP2 LT ISZERO PUSH2 0xDBD JUMPI DUP1 PUSH2 0xDA9 DUP9 DUP3 PUSH2 0xA59 JUMP JUMPDEST DUP5 MSTORE PUSH1 0x20 DUP5 ADD SWAP4 POP POP PUSH1 0x20 DUP2 ADD SWAP1 POP PUSH2 0xD96 JUMP JUMPDEST POP POP POP SWAP4 SWAP3 POP POP POP JUMP JUMPDEST PUSH0 DUP3 PUSH1 0x1F DUP4 ADD SLT PUSH2 0xDDB JUMPI PUSH2 0xDDA PUSH2 0xCB4 JUMP JUMPDEST JUMPDEST DUP2 CALLDATALOAD PUSH2 0xDEB DUP5 DUP3 PUSH1 0x20 DUP7 ADD PUSH2 0xD5F JUMP JUMPDEST SWAP2 POP POP SWAP3 SWAP2 POP POP JUMP JUMPDEST PUSH0 DUP1 REVERT JUMPDEST PUSH0 PUSH8 0xFFFFFFFFFFFFFFFF DUP3 GT ISZERO PUSH2 0xE12 JUMPI PUSH2 0xE11 PUSH2 0xCB8 JUMP JUMPDEST JUMPDEST PUSH2 0xE1B DUP3 PUSH2 0xB10 JUMP JUMPDEST SWAP1 POP PUSH1 0x20 DUP2 ADD SWAP1 POP SWAP2 SWAP1 POP JUMP JUMPDEST DUP3 DUP2 DUP4 CALLDATACOPY PUSH0 DUP4 DUP4 ADD MSTORE POP POP POP JUMP JUMPDEST PUSH0 PUSH2 0xE48 PUSH2 0xE43 DUP5 PUSH2 0xDF8 JUMP JUMPDEST PUSH2 0xD16 JUMP JUMPDEST SWAP1 POP DUP3 DUP2 MSTORE PUSH1 0x20 DUP2 ADD DUP5 DUP5 DUP5 ADD GT ISZERO PUSH2 0xE64 JUMPI PUSH2 0xE63 PUSH2 0xDF4 JUMP JUMPDEST JUMPDEST PUSH2 0xE6F DUP5 DUP3 DUP6 PUSH2 0xE28 JUMP JUMPDEST POP SWAP4 SWAP3 POP POP POP JUMP JUMPDEST PUSH0 DUP3 PUSH1 0x1F DUP4 ADD SLT PUSH2 0xE8B JUMPI PUSH2 0xE8A PUSH2 0xCB4 JUMP JUMPDEST JUMPDEST DUP2 CALLDATALOAD PUSH2 0xE9B DUP5 DUP3 PUSH1 0x20 DUP7 ADD PUSH2 0xE36 JUMP JUMPDEST SWAP2 POP POP SWAP3 SWAP2 POP POP JUMP JUMPDEST PUSH0 DUP1 PUSH0 DUP1 PUSH0 PUSH1 0xA0 DUP7 DUP9 SUB SLT ISZERO PUSH2 0xEBD JUMPI PUSH2 0xEBC PUSH2 0xA0B JUMP JUMPDEST JUMPDEST PUSH0 PUSH2 0xECA DUP9 DUP3 DUP10 ADD PUSH2 0xA59 JUMP JUMPDEST SWAP6 POP POP PUSH1 0x20 PUSH2 0xEDB DUP9 DUP3 DUP10 ADD PUSH2 0xCA0 JUMP JUMPDEST SWAP5 POP POP PUSH1 0x40 PUSH2 0xEEC DUP9 DUP3 DUP10 ADD PUSH2 0xA59 JUMP JUMPDEST SWAP4 POP POP PUSH1 0x60 DUP7 ADD CALLDATALOAD PUSH8 0xFFFFFFFFFFFFFFFF DUP2 GT ISZERO PUSH2 0xF0D JUMPI PUSH2 0xF0C PUSH2 0xA0F JUMP JUMPDEST JUMPDEST PUSH2 0xF19 DUP9 DUP3 DUP10 ADD PUSH2 0xDC7 JUMP JUMPDEST SWAP3 POP POP PUSH1 0x80 DUP7 ADD CALLDATALOAD PUSH8 0xFFFFFFFFFFFFFFFF DUP2 GT ISZERO PUSH2 0xF3A JUMPI PUSH2 0xF39 PUSH2 0xA0F JUMP JUMPDEST JUMPDEST PUSH2 0xF46 DUP9 DUP3 DUP10 ADD PUSH2 0xE77 JUMP JUMPDEST SWAP2 POP POP SWAP3 SWAP6 POP SWAP3 SWAP6 SWAP1 SWAP4 POP JUMP JUMPDEST PUSH32 0x4E487B7100000000000000000000000000000000000000000000000000000000 PUSH0 MSTORE PUSH1 0x22 PUSH1 0x4 MSTORE PUSH1 0x24 PUSH0 REVERT JUMPDEST PUSH0 PUSH1 0x2 DUP3 DIV SWAP1 POP PUSH1 0x1 DUP3 AND DUP1 PUSH2 0xF97 JUMPI PUSH1 0x7F DUP3 AND SWAP2 POP JUMPDEST PUSH1 0x20 DUP3 LT DUP2 SUB PUSH2 0xFAA JUMPI PUSH2 0xFA9 PUSH2 0xF53 JUMP JUMPDEST JUMPDEST POP SWAP2 SWAP1 POP JUMP JUMPDEST PUSH0 DUP2 SWAP1 POP DUP2 PUSH0 MSTORE PUSH1 0x20 PUSH0 KECCAK256 SWAP1 POP SWAP2 SWAP1 POP JUMP JUMPDEST PUSH0 PUSH1 0x20 PUSH1 0x1F DUP4 ADD DIV SWAP1 POP SWAP2 SWAP1 POP JUMP JUMPDEST PUSH0 DUP3 DUP3 SHL SWAP1 POP SWAP3 SWAP2 POP POP JUMP JUMPDEST PUSH0 PUSH1 0x8 DUP4 MUL PUSH2 0x100C PUSH32 0xFFFFFFFFFFFFFFFFFFFFFFFFFFFFFFFFFFFFFFFFFFFFFFFFFFFFFFFFFFFFFFFF DUP3 PUSH2 0xFD1 JUMP JUMPDEST PUSH2 0x1016 DUP7 DUP4 PUSH2 0xFD1 JUMP JUMPDEST SWAP6 POP DUP1 NOT DUP5 AND SWAP4 POP DUP1 DUP7 AND DUP5 OR SWAP3 POP POP POP SWAP4 SWAP3 POP POP POP JUMP JUMPDEST PUSH0 DUP2 SWAP1 POP SWAP2 SWAP1 POP JUMP JUMPDEST PUSH0 PUSH2 0x1051 PUSH2 0x104C PUSH2 0x1047 DUP5 PUSH2 0xAC1 JUMP JUMPDEST PUSH2 0x102E JUMP JUMPDEST PUSH2 0xAC1 JUMP JUMPDEST SWAP1 POP SWAP2 SWAP1 POP JUMP JUMPDEST PUSH0 DUP2 SWAP1 POP SWAP2 SWAP1 POP JUMP JUMPDEST PUSH2 0x106A DUP4 PUSH2 0x1037 JUMP JUMPDEST PUSH2 0x107E PUSH2 0x1076 DUP3 PUSH2 0x1058 JUMP JUMPDEST DUP5 DUP5 SLOAD PUSH2 0xFDD JUMP JUMPDEST DUP3 SSTORE POP POP POP POP JUMP JUMPDEST PUSH0 SWAP1 JUMP JUMPDEST PUSH2 0x1092 PUSH2 0x1086 JUMP JUMPDEST PUSH2 0x109D DUP2 DUP5 DUP5 PUSH2 0x1061 JUMP JUMPDEST POP POP POP JUMP JUMPDEST JUMPDEST DUP2 DUP2 LT ISZERO PUSH2 0x10C0 JUMPI PUSH2 0x10B5 PUSH0 DUP3 PUSH2 0x108A JUMP JUMPDEST PUSH1 0x1 DUP2 ADD SWAP1 POP PUSH2 0x10A3 JUMP JUMPDEST POP POP JUMP JUMPDEST PUSH1 0x1F DUP3 GT ISZERO PUSH2 0x1105 JUMPI PUSH2 0x10D6 DUP2 PUSH2 0xFB0 JUMP JUMPDEST PUSH2 0x10DF DUP5 PUSH2 0xFC2 JUMP JUMPDEST DUP2 ADD PUSH1 0x20 DUP6 LT ISZERO PUSH2 0x10EE JUMPI DUP2 SWAP1 POP JUMPDEST PUSH2 0x1102 PUSH2 0x10FA DUP6 PUSH2 0xFC2 JUMP JUMPDEST DUP4 ADD DUP3 PUSH2 0x10A2 JUMP JUMPDEST POP POP JUMPDEST POP POP POP JUMP JUMPDEST PUSH0 DUP3 DUP3 SHR SWAP1 POP SWAP3 SWAP2 POP POP JUMP JUMPDEST PUSH0 PUSH2 0x1125 PUSH0 NOT DUP5 PUSH1 0x8 MUL PUSH2 0x110A JUMP JUMPDEST NOT DUP1 DUP4 AND SWAP2 POP POP SWAP3 SWAP2 POP POP JUMP JUMPDEST PUSH0 PUSH2 0x113D DUP4 DUP4 PUSH2 0x1116 JUMP JUMPDEST SWAP2 POP DUP3 PUSH1 0x2 MUL DUP3 OR SWAP1 POP SWAP3 SWAP2 POP POP JUMP JUMPDEST PUSH2 0x1156 DUP3 PUSH2 0xAE8 JUMP JUMPDEST PUSH8 0xFFFFFFFFFFFFFFFF DUP2 GT ISZERO PUSH2 0x116F JUMPI PUSH2 0x116E PUSH2 0xCB8 JUMP JUMPDEST JUMPDEST PUSH2 0x1179 DUP3 SLOAD PUSH2 0xF80 JUMP JUMPDEST PUSH2 0x1184 DUP3 DUP3 DUP6 PUSH2 0x10C4 JUMP JUMPDEST PUSH0 PUSH1 0x20 SWAP1 POP PUSH1 0x1F DUP4 GT PUSH1 0x1 DUP2 EQ PUSH2 0x11B5 JUMPI PUSH0 DUP5 ISZERO PUSH2 0x11A3 JUMPI DUP3 DUP8 ADD MLOAD SWAP1 POP JUMPDEST PUSH2 0x11AD DUP6 DUP3 PUSH2 0x1132 JUMP JUMPDEST DUP7 SSTORE POP PUSH2 0x1214 JUMP JUMPDEST PUSH1 0x1F NOT DUP5 AND PUSH2 0x11C3 DUP7 PUSH2 0xFB0 JUMP JUMPDEST PUSH0 JUMPDEST DUP3 DUP2 LT ISZERO PUSH2 0x11EA JUMPI DUP5 DUP10 ADD MLOAD DUP3 SSTORE PUSH1 0x1 DUP3 ADD SWAP2 POP PUSH1 0x20 DUP6 ADD SWAP5 POP PUSH1 0x20 DUP2 ADD SWAP1 POP PUSH2 0x11C5 JUMP JUMPDEST DUP7 DUP4 LT ISZERO PUSH2 0x1207 JUMPI DUP5 DUP10 ADD MLOAD PUSH2 0x1203 PUSH1 0x1F DUP10 AND DUP3 PUSH2 0x1116 JUMP JUMPDEST DUP4 SSTORE POP JUMPDEST PUSH1 0x1 PUSH1 0x2 DUP9 MUL ADD DUP9 SSTORE POP POP POP JUMPDEST POP POP POP POP POP POP JUMP JUMPDEST PUSH2 0x1225 DUP2 PUSH2 0xA32 JUMP JUMPDEST DUP3 MSTORE POP POP JUMP JUMPDEST PUSH2 0x1234 DUP2 PUSH2 0xAC1 JUMP JUMPDEST DUP3 MSTORE POP POP JUMP JUMPDEST PUSH0 PUSH1 0x60 DUP3 ADD SWAP1 POP PUSH2 0x124D PUSH0 DUP4 ADD DUP7 PUSH2 0x121C JUMP JUMPDEST PUSH2 0x125A PUSH1 0x20 DUP4 ADD DUP6 PUSH2 0x121C JUMP JUMPDEST PUSH2 0x1267 PUSH1 0x40 DUP4 ADD DUP5 PUSH2 0x122B JUMP JUMPDEST SWAP5 SWAP4 POP POP POP POP JUMP JUMPDEST PUSH32 0x4E487B7100000000000000000000000000000000000000000000000000000000 PUSH0 MSTORE PUSH1 0x12 PUSH1 0x4 MSTORE PUSH1 0x24 PUSH0 REVERT JUMPDEST PUSH0 PUSH2 0x12A6 DUP3 PUSH2 0xAC1 JUMP JUMPDEST SWAP2 POP PUSH2 0x12B1 DUP4 PUSH2 0xAC1 JUMP JUMPDEST SWAP3 POP DUP3 PUSH2 0x12C1 JUMPI PUSH2 0x12C0 PUSH2 0x126F JUMP JUMPDEST JUMPDEST DUP3 DUP3 DIV SWAP1 POP SWAP3 SWAP2 POP POP JUMP JUMPDEST PUSH32 0x4E487B7100000000000000000000000000000000000000000000000000000000 PUSH0 MSTORE PUSH1 0x32 PUSH1 0x4 MSTORE PUSH1 0x24 PUSH0 REVERT JUMPDEST PUSH0 DUP3 DUP3 MSTORE PUSH1 0x20 DUP3 ADD SWAP1 POP SWAP3 SWAP2 POP POP JUMP JUMPDEST PUSH32 0x6164647265737320697320616C72656164792061207061727469636970616E74 PUSH0 DUP3 ADD MSTORE POP JUMP JUMPDEST PUSH0 PUSH2 0x133D PUSH1 0x20 DUP4 PUSH2 0x12F9 JUMP JUMPDEST SWAP2 POP PUSH2 0x1348 DUP3 PUSH2 0x1309 JUMP JUMPDEST PUSH1 0x20 DUP3 ADD SWAP1 POP SWAP2 SWAP1 POP JUMP JUMPDEST PUSH0 PUSH1 0x20 DUP3 ADD SWAP1 POP DUP2 DUP2 SUB PUSH0 DUP4 ADD MSTORE PUSH2 0x136A DUP2 PUSH2 0x1331 JUMP JUMPDEST SWAP1 POP SWAP2 SWAP1 POP JUMP JUMPDEST PUSH32 0x646562746F72206973206973206E6F742061207061727469636970616E740000 PUSH0 DUP3 ADD MSTORE POP JUMP JUMPDEST PUSH0 PUSH2 0x13A5 PUSH1 0x1E DUP4 PUSH2 0x12F9 JUMP JUMPDEST SWAP2 POP PUSH2 0x13B0 DUP3 PUSH2 0x1371 JUMP JUMPDEST PUSH1 0x20 DUP3 ADD SWAP1 POP SWAP2 SWAP1 POP JUMP JUMPDEST PUSH0 PUSH1 0x20 DUP3 ADD SWAP1 POP DUP2 DUP2 SUB PUSH0 DUP4 ADD MSTORE PUSH2 0x13D2 DUP2 PUSH2 0x1399 JUMP JUMPDEST SWAP1 POP SWAP2 SWAP1 POP JUMP INVALID LOG2 PUSH5 0x6970667358 0x22 SLT KECCAK256 0xB6 0x2C SELFDESTRUCT 0xC4 MULMOD 0xA7 0xE6 CALLDATACOPY DUP6 0xE5 ISZERO 0xAF 0xF8 0x4C ORIGIN PUSH21 0x5AA41F7D60F92B5FC89013E42049187A64736F6C63 NUMBER STOP ADDMOD NOT STOP CALLER "
				},
				"gasEstimates": {
					"creation": {
						"codeDepositCost": "1027000",
						"executionCost": "25418",
						"totalCost": "1052418"
					},
					"external": {
						"addCreditSimple(address,uint256,address,address[],string)": "infinite",
						"addParticipant(address)": "29383",
						"isParticipant(address)": "2855",
						"listCredits(address)": "infinite",
						"listDebits(address)": "infinite"
					},
					"internal": {
						"checkDebtors(address[] memory)": "infinite"
					}
				},
				"methodIdentifiers": {
					"addCreditSimple(address,uint256,address,address[],string)": "d374cd04",
					"addParticipant(address)": "dfafe10f",
					"isParticipant(address)": "929066f5",
					"listCredits(address)": "88658293",
					"listDebits(address)": "69a1649c"
				}
			},
			"storageLayout": {
				"storage": [
					{
						"astId": 38,
						"contract": "contracts/Expenses.sol:Expenses",
						"label": "participantLedger",
						"offset": 0,
						"slot": "0",
						"type": "t_mapping(t_address,t_struct(Ledger)33_storage)"
					},
					{
						"astId": 42,
						"contract": "contracts/Expenses.sol:Expenses",
						"label": "isParticipant",
						"offset": 0,
						"slot": "1",
						"type": "t_mapping(t_address,t_bool)"
					}
				],
				"types": {
					"t_address": {
						"encoding": "inplace",
						"label": "address",
						"numberOfBytes": "20"
					},
					"t_array(t_struct(LedgerEntry)24_storage)dyn_storage": {
						"base": "t_struct(LedgerEntry)24_storage",
						"encoding": "dynamic_array",
						"label": "struct Expenses.LedgerEntry[]",
						"numberOfBytes": "32"
					},
					"t_bool": {
						"encoding": "inplace",
						"label": "bool",
						"numberOfBytes": "1"
					},
					"t_mapping(t_address,t_bool)": {
						"encoding": "mapping",
						"key": "t_address",
						"label": "mapping(address => bool)",
						"numberOfBytes": "32",
						"value": "t_bool"
					},
					"t_mapping(t_address,t_struct(Ledger)33_storage)": {
						"encoding": "mapping",
						"key": "t_address",
						"label": "mapping(address => struct Expenses.Ledger)",
						"numberOfBytes": "32",
						"value": "t_struct(Ledger)33_storage"
					},
					"t_string_storage": {
						"encoding": "bytes",
						"label": "string",
						"numberOfBytes": "32"
					},
					"t_struct(Ledger)33_storage": {
						"encoding": "inplace",
						"label": "struct Expenses.Ledger",
						"members": [
							{
								"astId": 28,
								"contract": "contracts/Expenses.sol:Expenses",
								"label": "debits",
								"offset": 0,
								"slot": "0",
								"type": "t_array(t_struct(LedgerEntry)24_storage)dyn_storage"
							},
							{
								"astId": 32,
								"contract": "contracts/Expenses.sol:Expenses",
								"label": "credits",
								"offset": 0,
								"slot": "1",
								"type": "t_array(t_struct(LedgerEntry)24_storage)dyn_storage"
							}
						],
						"numberOfBytes": "64"
					},
					"t_struct(LedgerEntry)24_storage": {
						"encoding": "inplace",
						"label": "struct Expenses.LedgerEntry",
						"members": [
							{
								"astId": 19,
								"contract": "contracts/Expenses.sol:Expenses",
								"label": "amount",
								"offset": 0,
								"slot": "0",
								"type": "t_uint256"
							},
							{
								"astId": 21,
								"contract": "contracts/Expenses.sol:Expenses",
								"label": "asset",
								"offset": 0,
								"slot": "1",
								"type": "t_address"
							},
							{
								"astId": 23,
								"contract": "contracts/Expenses.sol:Expenses",
								"label": "description",
								"offset": 0,
								"slot": "2",
								"type": "t_string_storage"
							}
						],
						"numberOfBytes": "96"
					},
					"t_uint256": {
						"encoding": "inplace",
						"label": "uint256",
						"numberOfBytes": "32"
					}
				}
			},
			"userdoc": {
				"kind": "user",
				"methods": {},
				"version": 1
			}
		}
	}
}